:1000000000800020BD010000C91B0000951B0000FE
:10001000951B0000951B0000951B0000951B000020
:10002000951B0000951B0000951B0000C91B0000DC
:10003000C91B0000951B0000C91B0000851B0000A8
:10004000C91B0000C91B0000C91B0000C91B000020
:10005000C91B0000C91B0000C91B0000C91B000010
:10006000C91B0000C91B0000C91B0000C91B000000
:10007000C91B0000C91B0000C91B0000C91B0000F0
:10008000C91B0000C91B0000C91B0000C91B0000E0
:10009000C91B0000C91B0000C91B0000C91B0000D0
:1000A000C91B0000C91B0000C91B0000C91B0000C0
:1000B000C91B0000C91B0000C91B0000C91B0000B0
:1000C000C91B0000C91B0000C91B0000C91B0000A0
:1000D000C91B0000C91B0000C91B0000C91B000090
:1000E000C91B0000C91B0000C91B0000C91B000080
:1000F000C91B0000450D0000C91B00009D13000036
:10010000C91B00004D180000C91B0000C91B0000DE
:10011000C91B0000C91B0000C91B0000C91B00004F
:10012000C91B0000C91B0000C91B0000C91B00003F
:10013000C91B0000C91B0000C91B0000C91B00002F
:10014000C91B0000C91B0000C91B0000C91B00001F
:10015000C91B0000C91B0000C91B0000C91B00000F
:10016000C91B0000951F0000C91B0000C91B00002F
:10017000C91B0000C91B0000C91B0000C91B0000EF
:10018000C91B0000C91B0000C91B0000C91B0000DF
:10019000C91B0000C91B0000C91B0000C91B0000CF
:1001A000C91B0000C91B0000C91B0000C91B0000BF
:1001B000C91B0000C91B0000C91B0000564B4CF2B4
:1001C000205210B51A804DF628121A8000BF00BFC9
:1001D00001F0FEFC514B4FF010621A60504A9A60D9
:1001E000504ADA60A3F53043203B1A6812F480725B
:1001F00004D14D490A604FF4A8521A604B4B1A784B
:10020000110703D51A7842F008021A70484B2A22C7
:100210001A700023474A48499818884204D247492F
:10022000595899500433F5E7454A464B9A424FF0E6
:10023000000302D242F8043BF7E74349434A5958C6
:1002400099500433B3F5DE7FF7D1414B802103F899
:10025000011B40498B42F9D13F4B1A603F4B0A22A8
:100260001A70A3F5805324225A70A0221A709A792A
:100270009207FCD59A79D406FCD4394B9A7902F0CE
:100280000C02082AF9D105221A7143225A719A796F
:100290009006FCD5324B9A795106FBD5314A4FF086
:1002A000817111600521516020221A702C4B9B79BD
:1002B00003F00C030C2BF9D12B4B2C4A1A602C4B5E
:1002C0002C4A1A6000225A60072243F8042C2A4A5A
:1002D000C3F80C2D62B601F045FD134B1B68DA071D
:1002E00005D5264801F09AFC254B264A1A60264B74
:1002F0001B785B0609D5224C224A2368934204D11D
:100300001E4801F08BFC0023236002F073FA01F019
:1003100065FC00F0A9F8FEE70E200540308004409F
:10032000823F04000100002B14D0034002D007409C
:1003300000E007406087FF1F0888FF1F182B0000A0
:100340000888FF1FFC8AFF1F000000000082FF1FBB
:1003500000E400E05FE400E008ED00E0005006404B
:10036000004006404480044004800440C010050062
:1003700014E000E03F190100000020206B7847578F
:100380001CE00340A5C3945A00F00740FFFFFFFFA5
:10039000FFFFFFFFFFFFFFFFFFFFFFFFFFFFFFFF6D
:1003A000FFFFFFFFFFFFFFFFFFFFFFFFFFFFFFFF5D
:1003B000FFFFFFFFFFFFFFFFFFFFFFFFFFFFFFFF4D
:1003C000FFFFFFFFFFFFFFFFFFFFFFFFFFFFFFFF3D
:1003D000FFFFFFFFFFFFFFFFFFFFFFFFFFFFFFFF2D
:1003E000FFFFFFFFFFFFFFFFFFFFFFFFFFFFFFFF1D
:1003F000FFFFFFFFFFFFFFFFFFFFFFFFFFFFFFFF0D
:10040000FFFFFFFFFFFFFFFFFFFFFFFFFEFFFFFFFD
:1004100010B5054C237833B9044B13B10448AFF33E
:1004200000800123237010BD0888FF1F000000001A
:10043000182B000008B5064B1BB106480649AFF360
:1004400000800648036813B1054B03B1984708BD07
:1004500000000000182B00000C88FF1F0888FF1FF9
:10046000000000007047704708B5FFF7FBFFFFF77B
:10047000FAFF00F001F8FAE710B50E4C2378BBB98B
:100480000123237001F0AAFA08B101F056FA00F036
:10049000E3FB08B100F089F800F00AFF08B100F0B2
:1004A0000CF901F06FF908B100F08FF90023237007
:1004B00010BD00BF2488FF1F08B50368C9B21B68C0
:1004C000984708BD08B50368C9B21B68984708BDBE
:1004D00008B50368C9B21B68984708BD08B503682A
:1004E000C9B21B68984708BD034800EB5100B0FB38
:1004F000F1F000F079B900BF0044950810B5064846
:1005000000EB51001446B0FBF1F000F06DF920460D
:10051000BDE8104000F0CCB90044950800F0F2B9F5
:10052000084600F023BA084600F064BA084600F016
:1005300039BA08B5084600F083FA003018BF012028
:1005400008BD08B5084600F09DFA003018BF01202C
:1005500008BD00F081BB00F0B9BB00F08DBB00F01E
:100560005FBB00F0CBBB00F065BB08B5084600F0F0
:10057000AFFA012008BD08B5084600F0A9FA01202D
:1005800008BD10B508461446114600F0EBFA2046A7
:1005900010BD38B508460D4602F052F90446214612
:1005A000284600F0DFFA204638BD7047044B002291
:1005B0001A714FF47A711A73024A99601A6070477F
:1005C0002888FF1F5828000008B50368C9B21B68B7
:1005D000984708BD08B50368C9B21B68984708BDAD
:1005E00008B50368C9B21B68984708BD08B5036819
:1005F000C9B21B68984708BD034800EB5100B0FB27
:10060000F1F000F023BC00BF0044950810B5064887
:1006100000EB51001446B0FBF1F000F017FC20464F
:10062000BDE8104000F076BC0044950800F09CBC8A
:10063000084600F0CDBC084600F00EBD084600F0AC
:10064000E3BC08B5084600F02FFD003018BF0120BC
:1006500008BD08B5084600F049FD003018BF01206C
:1006600008BD00F025BE00F05DBE00F031BE00F018
:1006700003BE00F06FBE00F009BE08B5084600F0EA
:1006800053FD012008BD08B5084600F04DFD0120CE
:1006900008BD10B508461446114600F08FFD2046EF
:1006A00010BD38B508460D4602F0CAF8044621468A
:1006B000284600F083FD204638BD7047044B0022D9
:1006C0001A714FF47A711A73024A99601A6070476E
:1006D0003888FF1FB828000008B50368C9B21B6836
:1006E000984708BD08B50368C9B21B68984708BD9C
:1006F00008B50368C9B21B68984708BD08B5036808
:10070000C9B21B68984708BD034800EB5100B0FB15
:10071000F1F000F0C7BE00BF00A24A0410B50648C1
:1007200000EB51001446B0FBF1F000F0BBFE204698
:10073000BDE8104000F0F8BE00A24A0400F01EBF61
:10074000084600F04FBF084600F069BF084600F0B9
:1007500065BF08B5084600F063FF003018BF0120F0
:1007600008BD08B5084600F07DFF003018BF012025
:1007700008BD01F007B801F03FB801F013B800F070
:10078000E5BF01F051B800F0EBBF08B5084600F036
:1007900087FF012008BD08B5084600F081FF012051
:1007A00008BD10B508461446114600F0C3FF2046A8
:1007B00010BD38B508460D4602F042F80446214601
:1007C000284600F0B7FF204638BD7047044B002292
:1007D0001A714FF47A711A73024A99601A6070475D
:1007E0004888FF1F18290000234B1A6842F48062D2
:1007F0001A60224A00231370214A1370214A137091
:10080000214A1370214A1370214B1B782BB1152BF1
:1008100007D140F213321F4B02E01F4B40F213325C
:100820001A601E4B1B78012B05D0052B07D14FF406
:1008300051721B4B02E01B4B4FF451721A601A4B62
:10084000C0F344321A70C0F347125A7002210422D6
:1008500000F01F0098729A70D9745A7588221A7421
:100860003C22DA70114B40226FF44A711A700B442B
:100870004FF400521A60704734800440DF88FF1F35
:100880005D88FF1FE888FF1FE088FF1F5C88FF1F4F
:100890009E88FF1F18C0044040A004406087FF1FCF
:1008A0001CC0044044A0044000A006402DE400E029
:1008B000134A937800F0030103F0EC030B43410764
:1008C00048BF43F01003937000F00F03042B0C4952
:1008D00003D18B7943F040038B715379C20603F047
:1008E000EF03074A48BF43F0100353719379810621
:1008F00003F0EF0348BF43F010039371704700BF4C
:1009000000A0064008B5114B1B685B0500D408BD6C
:100910000F4B1A7802F0FF0312B1FFF7ADFDF7E7B6
:100920000C4A4FF4005111600B4A0C49D37040F24D
:1009300003120A604A600A4A13700A4A13700A4B8B
:100940001B680BB101221A7008BD00BF348004403F
:100950005C88FF1F84E100E000A0064040A0044046
:10096000DF88FF1F5D88FF1F5888FF1F38B50446CA
:10097000094B1B7803F0FF05002BF9D1204601211C
:1009800001F07CF92046294601F058F9034B53F851
:100990003420034B1A6038BD5C88FF1F902900008B
:1009A000E488FF1F0F4A137898421AD00E4909684D
:1009B000490515D5012B04D0052B05D100210B4B82
:1009C00001E00B4B00211960012805D0052807D153
:1009D0004FF45171054B02E0054B4FF45171196012
:1009E000107070476087FF1F348004401CC00440B3
:1009F00044A004400E4A1378984218D00D49096863
:100A0000490513D52BB1152B05D10B4B00211960CE
:100A100001E00A490B6028B1152807D140F21331D3
:100A2000054B02E0054B40F213311960107070471E
:100A30009E88FF1F3480044018C0044040A004403A
:100A40000D4A38B5146814F480624FF0000410D0D9
:100A500021280A4D0AD80A4A012152F830302B6069
:100A600001F00CF92B681C70012038BD2C60204669
:100A700038BD104638BD00BF348004405888FF1F81
:100A8000902900000E4B1B6813F4806316D01228C7
:100A90000C4B03D140F202310B4A04E0142809D177
:100AA0000A4A40F2023111605A7B42F001025A7345
:100AB000012070475A7B02F0FE025A7300207047F3
:100AC0003480044000A006400CA0044014C0044040
:100AD000F8B51D4B1B685A05064633D51B4B1B68E2
:100AE0000BB101221A701A4B1C780134402C1F469E
:100AF00028BF0024174D2B78A34218D101F070F8BD
:100B000040280FDC144A13791B06F3D52B781349C0
:100B10000133402B28BF0023C95CDBB2C9B2D171BD
:100B20002B70E7E7FF28E5DDFFF7A6FCE2E70B4BBC
:100B3000F6B21E550A4B01221A70074BE4B2BC22D2
:100B40003C70DA70F8BD00BF34800440E488FF1FB9
:100B5000E888FF1FE088FF1F00A006405E88FF1F97
:100B60005C88FF1F274B1B685A052DE9F047074695
:100B70008A4644D5244B1B680BB101221A703D46AE
:100B800007EB0A039D4237D2DFF890801F4E98F89A
:100B9000004096F800900134402C28BF00245FFAF2
:100BA00089F9A1451DD11A4BBC22DA7001F018F861
:100BB00040280FDC164A13791B060FD533781549E8
:100BC0000133402B28BF0023C95CDBB2C9B2D1710D
:100BD000337003E0FF2801DDFFF74EFC33784B450F
:100BE000E4D00C4B15F8012B1A550B4B0122E4B243
:100BF0001A7088F80040C3E7054BBC22DA70BDE8E4
:100C0000F08700BF34800440E488FF1FE088FF1FA6
:100C100000A006405E88FF1F5C88FF1FE888FF1F5A
:100C200008B5034B1B7813B1FFF726FCF9E708BDA5
:100C30005C88FF1F064A074B1B781078DBB2C0B2F6
:100C400083422CBF3F3000F1FF30C01A704700BF15
:100C5000E088FF1FE888FF1F054B1878054B1B78BD
:100C6000C0B2DBB2984238BF4030C01A704700BFF4
:100C7000DF88FF1F5D88FF1F10B5104B10491A78E1
:100C80000B78D2B2DBB29A4214D00133402B28BF8A
:100C900000230C48DCB2C05C0C700B490968C0B280
:100CA00051B19A4238BF4032D31A1A2B04DC0023C8
:100CB0000B7010BD4FF0FF3010BD00BFDF88FF1F6D
:100CC0005D88FF1F9F88FF1F5888FF1F084B1A78F9
:100CD000084B1B78DBB29A4207D00133402B28BF68
:100CE0000023054AD05CC0B270474FF0FF30704718
:100CF000DF88FF1F5D88FF1F9F88FF1F0C4B1B684D
:100D00005B0514D50B4BDA7802F0CB02DA70402287
:100D10005A74DA7842F03402DA70074B1A78074BCB
:100D2000D2B21A70064B1B680BB100221A707047C2
:100D30003480044000A006405D88FF1FDF88FF1F4D
:100D40005888FF1F30B5374B1A7912F0300F31D069
:100D500072B69A7D02F0FF0022B9DA7940225A7405
:100D600062B627E062B6304A304913780978DBB2C0
:100D7000C9B214462B4AD5795A1C402A28BF0022F2
:100D80008A42EDB202D02A4B9D541346421E12F005
:100D9000FF00EFD1DAB22270264A126852B18B42BC
:100DA00036BFC1F14001C1EB03035B18272BC4BF61
:100DB000012313701B4BD978C9B20C0620D51B79BF
:100DC00018061DD51C4B1D4A1D781378EDB2DBB2F9
:100DD0001046AB420CD0134A0133402B1479184C07
:100DE00028BF0023E45CE4B2D471127D072AF0D955
:100DF000DBB203700B4B1A79120644BF7C22DA7007
:100E00004B060ED5074B1A7912F0400F194608D041
:100E10000C4B00221A700C4B1B6803B11A703C2358
:100E2000CB7030BD00A00640DF88FF1F5D88FF1F2C
:100E30009F88FF1F5888FF1FE888FF1FE088FF1F5B
:100E40005E88FF1F5C88FF1FE488FF1F234B1A6822
:100E500042F400621A60224A00231370214A137080
:100E6000214A1370214A1370214A1370214B1B78B9
:100E7000092B05D01A2B07D140F213321E4B02E08A
:100E80001E4B40F213321A601D4B1B780A2B05D003
:100E90001F2B07D14FF451721A4B02E01A4B4FF43B
:100EA00051721A60194BC0F344321A70C0F34712E2
:100EB0005A7000F01F000422022198729A70D974AF
:100EC0005A7588221A743C22DA70114B40221A702B
:100ED000A3F22B334FF400421A6070473480044071
:100EE0005A89FF1FF188FF1F6089FF1F5B89FF1F61
:100EF000F088FF1F6187FF1F04D004400CB004403E
:100F00006287FF1F00D0044010B0044000B00640CC
:100F10002FE400E0134A937800F0030103F0EC03A0
:100F20000B43410748BF43F01003937000F00F03D9
:100F3000042B0C4903D18B7943F040038B71537917
:100F4000C20603F0EF03074A48BF43F01003537192
:100F50009379810603F0EF0348BF43F010039371C8
:100F6000704700BF00B0064008B5114B1B681B0559
:100F700000D408BD0F4B1A7802F0FF0312B1FFF73F
:100F80007BFAF7E70C4A4FF4004111600B4A0C4919
:100F9000D37040F203120A604A600A4A13700A4A88
:100FA00013700A4B1B680BB101221A7008BD00BFF9
:100FB00034800440F088FF1F84E100E000B0064068
:100FC0000CB004405A89FF1FF188FF1FEC88FF1FF7
:100FD00038B50446094B1B7803F0FF05002BF9D107
:100FE0002046012100F04AFE2046294600F026FE58
:100FF000034B53F83420034B1A6038BDF088FF1FB1
:10100000902900005C89FF1F0F4A137898421AD07C
:101010000E490968C90415D50A2B04D01F2B05D128
:1010200000210B4B01E00B4B002119600A2805D071
:101030001F2807D14FF45171054B02E0054B4FF4C7
:1010400051711960107070476287FF1F348004402F
:1010500000D0044010B004400F4A137898421AD0D0
:101060000E490968C90415D5092B04D01A2B05D1DE
:1010700000210B4B01E00B4B00211960092805D022
:101080001A2807D140F21331054B02E0054B40F21C
:1010900013311960107070476187FF1F348004405E
:1010A00004D004400CB004400D4A38B5146814F460
:1010B00000624FF0000410D021280A4D0AD80A4AD5
:1010C000012152F830302B6000F0D8FD2B681C70E5
:1010D000012038BD2C60204638BD104638BD00BF09
:1010E00034800440EC88FF1F902900000B4B1B68E4
:1010F00013F4006310D01728094B09D1094A40F2B4
:10110000023111605A7B42F001025A73012070478C
:101110005A7B02F0FE025A7300207047348004406C
:1011200000B0064008B00440F8B51D4B1B681A0516
:10113000064633D51B4B1B680BB101221A701A4BA4
:101140001C780134282C1F4628BF0024174D2B780B
:10115000A34218D100F044FD40280FDC144A137953
:101160001B06F3D52B7813490133282B28BF002306
:10117000C95CDBB2C9B2D1712B70E7E7FF28E5DDAE
:10118000FFF77AF9E2E70B4BF6B21E550A4B012244
:101190001A70074BE4B2BC223C70DA70F8BD00BF95
:1011A000348004405C89FF1F6089FF1F5B89FF1F3B
:1011B00000B00640F288FF1FF088FF1F274B1B6816
:1011C0001A052DE9F04707468A4644D5244B1B688B
:1011D0000BB101221A703D4607EB0A039D4237D23C
:1011E000DFF890801F4E98F8004096F80090013488
:1011F000282C28BF00245FFA89F9A1451DD11A4B7C
:10120000BC22DA7000F0ECFC40280FDC164A13799F
:101210001B060FD5337815490133282B28BF00232F
:10122000C95CDBB2C9B2D171337003E0FF2801DDC4
:10123000FFF722F933784B45E4D00C4B15F8012B1E
:101240001A550B4B0122E4B21A7088F80040C3E72C
:10125000054BBC22DA70BDE8F08700BF3480044043
:101260005C89FF1F5B89FF1F00B00640F288FF1FEB
:10127000F088FF1F6089FF1F08B5034B1B7813B16F
:10128000FFF7FAF8F9E708BDF088FF1F064A074B99
:101290001B781078DBB2C0B283422CBF273000F13C
:1012A000FF30C01A704700BF5B89FF1F6089FF1FB6
:1012B000054B1878054B1B78C0B2DBB2984238BF9B
:1012C0004030C01A704700BF5A89FF1FF188FF1FC6
:1012D00010B5104B10491A780B78D2B2DBB29A4293
:1012E00014D00133402B28BF00230C48DCB2C05C73
:1012F0000C700B490968C0B251B19A4238BF4032F4
:10130000D31A1A2B04DC00230B7010BD4FF0FF30F2
:1013100010BD00BF5A89FF1FF188FF1F1A89FF1FE8
:10132000EC88FF1F084B1A78084B1B78DBB29A42F7
:1013300007D00133402B28BF0023054AD05CC0B240
:1013400070474FF0FF3070475A89FF1FF188FF1F29
:101350001A89FF1F0C4B1B681B0514D50B4BDA7841
:1013600002F0CB02DA7040225A74DA7842F034028A
:10137000DA70074B1A78074BD2B21A70064B1B680B
:101380000BB100221A7070473480044000B0064050
:10139000F188FF1F5A89FF1FEC88FF1F30B5374BBC
:1013A0001A7912F0300F31D072B69A7D02F0FF0038
:1013B00022B9DA7940225A7462B627E062B6304A1E
:1013C000304913780978DBB2C9B214462B4AD57973
:1013D0005A1C402A28BF00228A42EDB202D02A4B72
:1013E0009D541346421E12F0FF00EFD1DAB2227074
:1013F000264A126852B18B4236BFC1F14001C1EB9F
:1014000003035B18272BC4BF012313701B4BD97830
:10141000C9B20C0620D51B7918061DD51C4B1D4AD8
:101420001D781378EDB2DBB21046AB420CD0134AF4
:101430000133282B1479184C28BF0023E45CE4B254
:10144000D471127D072AF0D9DBB203700B4B1A79E5
:10145000120644BF7C22DA704B060ED5074B1A7970
:1014600012F0400F194608D00C4B00221A700C4B9A
:101470001B6803B11A703C23CB7030BD00B006402E
:101480005A89FF1FF188FF1F1A89FF1FEC88FF1F71
:101490006089FF1F5B89FF1FF288FF1FF088FF1F15
:1014A0005C89FF1F174B1A6842F480521A60164A73
:1014B00000231370154A1370154A1370154A1370E0
:1014C000154A1370154A40F2133111604FF45171EF
:1014D0005160134AC0F344311170C0F3471100F05A
:1014E0001F0051709072937013742C23D3700D4BA6
:1014F00040226FF44B711A700B444FF400321A60A3
:10150000704700BF34800440D289FF1F6989FF1FE4
:10151000D889FF1FD389FF1F6889FF1F08C00440B7
:1015200000C0064031E400E0134A937800F0030164
:1015300003F0EC030B43410748BF43F010039370E3
:1015400000F00F03042B0C4903D18B7943F04003C7
:101550008B715379C20603F0EF03074A48BF43F08B
:10156000100353719379810603F0EF0348BF43F0F2
:1015700010039371704700BF00C0064008B5114BBF
:101580001B68DB0400D408BD0F4B1A7802F0FF0380
:1015900012B1FEF771FFF7E70C4A4FF4003111600A
:1015A0000B4A0C49D37040F203120A604A600A4A9F
:1015B00013700A4A13700A4B1B680BB101221A7090
:1015C00008BD00BF348004406889FF1F84E100E04B
:1015D00000C0064008C00440D289FF1F6989FF1F70
:1015E0006489FF1F38B50446094B1B7803F0FF05DB
:1015F000002BF9D12046012100F040FB204629466E
:1016000000F01CFB034B53F83420034B1A6038BD29
:101610006889FF1F90290000D489FF1F7047704719
:101620000D4A38B5146814F480524FF0000410D0FD
:1016300021280A4D0AD80A4A012152F830302B607D
:1016400000F01CFB2B681C70012038BD2C6020466C
:1016500038BD104638BD00BF348004406489FF1F88
:10166000902900000B4B1B6813F4805310D00E28F8
:10167000094B09D1094A40F2023111605A7B42F00C
:1016800001025A73012070475A7B02F0FE025A731E
:10169000002070473480044000C0064004C004406D
:1016A000F8B51D4B1B68DA04064633D51B4B1B6887
:1016B0000BB101221A701A4B1C780134282C1F46DA
:1016C00028BF0024174D2B78A34218D100F088FAC8
:1016D00040280FDC144A13791B06F3D52B781349E5
:1016E0000133282B28BF0023C95CDBB2C9B2D171FA
:1016F0002B70E7E7FF28E5DDFEF7BEFEE2E70B4BC8
:10170000F6B21E550A4B01221A70074BE4B2AC2206
:101710003C70DA70F8BD00BF34800440D489FF1FEC
:10172000D889FF1FD389FF1F00C006406A89FF1FA9
:101730006889FF1F38B504464518AC4204D014F838
:10174000010BFFF7ADFFF8E738BDFFFF08B5034B0E
:101750001B7813B1FEF790FEF9E708BD6889FF1FFB
:10176000064A074B1B781078DBB2C0B283422CBF0D
:10177000273000F1FF30C01A704700BFD389FF1F28
:10178000D889FF1F054B1878054B1B78C0B2DBB218
:10179000984238BF4030C01A704700BFD289FF1F3F
:1017A0006989FF1F10B5104B10491A780B78D2B217
:1017B000DBB29A4214D00133402B28BF00230C48DF
:1017C000DCB2C05C0C700B490968C0B251B19A42DE
:1017D00038BF4032D31A1A2B04DC00230B7010BD23
:1017E0004FF0FF3010BD00BFD289FF1F6989FF1F76
:1017F0009289FF1F6489FF1F084B1A78084B1B78DA
:10180000DBB29A4207D00133402B28BF0023054AA0
:10181000D05CC0B270474FF0FF307047D289FF1FD5
:101820006989FF1F9289FF1F054B1A78054BD2B2B9
:101830001A70054B1B680BB100221A70704700BF6D
:101840006989FF1FD289FF1F6489FF1F10B5294BCB
:101850001A79920620D5284AD87913782749013376
:10186000402B097828BF00238B42C0B203D0244903
:10187000C854D9B21170234A116869B1224A12784A
:10188000D2B2934236BFC2F14002C2EB03039B18AF
:10189000272BC4BF01230B70164AD178C9B20C069E
:1018A00016D51379180613D5184B17481C780378EA
:1018B000DBB29C4202D16C23D37009E00133282BA8
:1018C00028BF0023124CE45CDBB2E4B2D471037095
:1018D0004B060ED5074B1A7912F0400F194608D067
:1018E0000C4B00221A700C4B1B6803B11A702C238E
:1018F000CB7010BD00C00640D289FF1F6989FF1F51
:101900009289FF1F6489FF1FD389FF1FD889FF1F9A
:101910006A89FF1F6889FF1FD489FF1F00F05EB826
:1019200000F01AB800F03EB800F0DAB8084600F04F
:10193000CBB80846114600F05FB87047044B002250
:101940001A714FF47A711A73024A99601A607047DB
:10195000DC89FF1F7829000010B5104C23686BB19B
:1019600020684288531C0244147A0288934212D39E
:1019700000F06CFE094B00221A600DE0084B1B784A
:1019800013B94FF0FF3010BD032000F059FA20606A
:101990000028E5D1F5E74380204610BDF889FF1FF8
:1019A000E38AFF1F10B50B4C236813B123686BB992
:1019B00002E0094B1B7813B94FF0FF3010BD032034
:1019C00000F03EFA20600028F0D1F5E75A88134471
:1019D000187A10BDF889FF1FE38AFF1F044B98880F
:1019E000044B1B681BB11A885B88D31A18447047D4
:1019F000F48AFF1FF889FF1F2DE9F8432D4E0123BC
:101A000007460C463370002C4FD02B4D2B68A9464F
:101A10002BBB48F60148294B1B7803F0FF020BB99A
:101A2000327015E0042000F027FA072808D80123B7
:101A3000337000F0EDFDC9F8000080B91D4B18703F
:101A4000B8F101081E4B01D01A782AB101221A7090
:101A50004FF0FF30BDE8F883FEF70EFDDBE72968A5
:101A6000174A488800231370C0F14002944238BFDF
:101A7000224600F1080C10448C444880A41A93427A
:101A800004D0F85C0CF803000133F8E71F444B88DE
:101A90003F2B06D940230B80042000F03BFA0023A3
:101AA0002B60084B05221A70ADE734702046BDE864
:101AB000F88300BFED89FF1FF089FF1FE38AFF1F36
:101AC000F489FF1FEC89FF1F07B502AB012103F862
:101AD000010D1846FFF790FF03B05DF804FBFFFF10
:101AE0002DE9F041114B1B78F3B1114E114B3468C5
:101AF000114D01271F7098464CB1002763882F7045
:101B000004202380214600F005FA376009E000F048
:101B10007FFD014620B104202C7000F0FBF900E0AD
:101B20002F70002388F80030BDE8F081E38AFF1FA2
:101B3000F089FF1FED89FF1FEC89FF1F38B50E4BA1
:101B40001B7803F0FF05ABB90C4C216831B14B8811
:101B50000B80042000F0DEF9256038BD00F058FD50
:101B6000014620B10420BDE8384000F0D3B9044B51
:101B700001221A7038BD00BFED89FF1FF089FF1FD9
:101B8000EC89FF1F024B1A6801321A60704700BFD0
:101B9000008AFF1F08B50B4C2368580301D500F0DD
:101BA000F9F92368590501D5FFF7CCF823681A0520
:101BB00001D5FFF7F3FB2368DB04ECD5FFF746FE06
:101BC000E9E700BF3480044008B5FFF7E3FFFFFFFB
:101BD000014B10221A807047002005407047FFFF1C
:101BE000EFF313839BB9EFF3108098B9EFF30583FC
:101BF00023B10F2B04D9084A985C01E04FF48070A0
:101C0000EFF311833BB1834238BF184670474FF062
:101C1000FF30704718467047F0E300E0044B054979
:101C200000221A600A60044A106010221A6070478D
:101C300014D0034004D0034000D00340212810B545
:101C400018D80D4A52F8303093F880423CB1012246
:101C500011B183F8802010BD83F8002110BD02EB84
:101C6000C00043681A6811B142F0030201E022F09B
:101C700002021A6010BD00BF90290000212810B593
:101C800037D81C4A02EBC00301295B68144601D017
:101C900004290FD154F83020012082F880024FF43B
:101CA000A2721A601A6804290CBF42F0200222F0C6
:101CB00020021DE052F83020002082F8800211B18D
:101CC0008A1E012A12D84FF4807202291A6003D1A9
:101CD0001A6842F003020BE003290AD11A6842F0A5
:101CE00002021A601A6822F0010201E040F20312B7
:101CF0001A6010BD9029000072B60C4B0C491A688E
:101D00000C4B1B68096862B6490102D5322A88BFAC
:101D10000133C2F58C32482102F23F12B2FBF1F2DC
:101D20004FF47A7000FB0320704700BF18E000E01A
:101D300004ED00E0008AFF1F38B50446FFF7DCFF22
:101D4000054624B938BD013C0AD005F57A75FFF780
:101D5000D3FF401BB0F57A7FF5D2FEF78DFBF6E797
:101D600038BDFFFF1F4B4FF4000210B51A604FF053
:101D700080721A604FF000721A604FF080621A6031
:101D80004FF000621A60184B184A194C002048F6B0
:101D9000FF71186059602823136093601361936189
:101DA00013629362136393630922226004F58054E3
:101DB000043420606160A360236144F8042C04F5BE
:101DC000FE2420600B4801600B490B608B600B4BBD
:101DD0001A6000F05DFCFA20FFF7AEFFBDE810408E
:101DE00000F0D6BB08E100E0048003400C80034013
:101DF0000080034008800B400C800B4000800B40AB
:101E0000F0B50C4B0C4C1A7842F0020504EBC506F9
:101E100082F00102706009481A700678002E0CBF2B
:101E20008827C82786F0010647EA0141067044F872
:101E30003510F0BD6C8AFF1F0080FF1FE48AFF1F72
:101E4000431E032B10B510D872B6094A52F823006E
:101E500048B1416842F82310064A018832F813401D
:101E6000611A22F8131062B610BD002010BD00BF29
:101E70005C8AFF1FF48AFF1F013803280AD872B654
:101E8000054B53F82030002013B101305B68FBE7AD
:101E900062B6704700207047B08AFF1F10B572B657
:101EA0000123174A1A4412F8012C12071CD5990075
:101EB000144A52F831402CB902EB431308305860F1
:101EC000114B09E041F0010152F8314064B902EBD5
:101ED000C103083058600D4B42F831300C4B1A7872
:101EE000013A1A7062B610BD0133052BD9D162B622
:101EF000074B00221A70BDE8104000F0A7BB00BFDE
:101F0000A02A00000080FF1F88004000C800400099
:101F1000DA8AFF1F431E032B30B532D8194A40011D
:101F200040F01000104472B6174CE25C032A09D846
:101F3000DFE802F0160218050830022213E008302C
:101F4000042210E01148124A50F8234014B940F816
:101F5000231002E052F82300416042F823100FE002
:101F6000032200E00522E25410F0080F01F10803FB
:101F70000A8843600CBF8823C82343EA02430360F6
:101F800062B630BD0080FF1F188AFF1FB08AFF1F96
:101F9000C08AFF1F2DE9F84FAB4F3C78E4B214F034
:101FA000040F3D4619D0A94B1B78A3B1A84A11785C
:101FB00001F0FF0321B1013BDBB2137003B900BE96
:101FC000A44A117801F0FF0329B1013BDBB2137081
:101FD0000BB9FFF7B3FD04233B7004F0080303F0D3
:101FE000FF02002B00F067829B4B9C4C1A78D2B208
:101FF00015094FEA920840F0E48104EBC8035968E0
:1020000054F83830C3F38303013B0C2B00F2D68124
:10201000DFE813F095019501D401D401D401D40176
:10202000D401D401B001D401D401D4010D008C4DF0
:102030000A684B688B486B6001218B4B44F8383041
:102040002A60DFF85082017092B240F28160002372
:102050008242C8F800302361A36117D8B2F5D06F6F
:1020600080F01E81B2F5817F00F0CF8006D8802AF3
:1020700000F0BA80822A00F0BB8031E140F20233E6
:102080009A4200F0D180B2F5A06F1CE042F221002C
:10209000824200F051810ED8B2F5086F00F09E80A8
:1020A000B2F5106F40F01C81684B6C4EAA781A7024
:1020B00006F180090AE042F221218A4200F00881FB
:1020C00042F221339A4200F00F8109E1336A1B0684
:1020D00003D5706A083800F0B9FA08364E45F5D1D4
:1020E0000026B146DFF8B0A156F80A0028B1D0F8B2
:1020F00004B000F0ABFA5846F8E74AF806005B4B2C
:10210000DFF898A1F05056F80A0028B1D0F804B0D2
:1021100000F09CFA5846F8E7554B4AF80600F05094
:10212000544B23F81900544B19F80320023A032AA0
:1021300008D8DFE802F002040204002200E00122D5
:1021400003F8092009F10109B9F1040F06F10406A9
:10215000C8D14A4B00221A7001269A46484A494B78
:102160003244334412F8012C9B0012F0080F1A700D
:102170004FEA860925D000F04BFA38B104EB46133C
:1021800008305860404B44F8393006E09AF8003087
:1021900044F8390001338AF8003000F039FA49F088
:1021A000010338B104EBC302083050602E4A44F8F2
:1021B000332006E044F833009AF8003001338AF8FF
:1021C000003049F00202013649F003090023052ED0
:1021D00044F8323044F83930C0D186E01B4B2B4CE8
:1021E0001B7823700B4683E0284C237063707EE0DD
:1021F000AA88042A74D8254C920023706370244B5B
:102200009B5C9E0773D5217071E0AA8802F07F0263
:10221000042A65DC6B88002B62D191001C4A0A44B9
:10222000117821F0020159E0AA8802F07F02042A05
:1022300056DC6B88002B53D19100154A0A44117863
:1022400041F002014AE000BF80200740E38AFF1FFF
:102250006D8AFF1FEC89FF1F902007400080FF1F41
:10226000D08AFF1FE48AFF1FC8004000088AFF1FB2
:10227000C08AFF1FF48AFF1F188AFF1FDA8AFF1F18
:10228000A02A000030C8011088004000DB8AFF1F30
:10229000C0200740048AFF1F5C8AFF1FB08AFF1F0F
:1022A0006A88A9889F4B53F8084CA3F10C00BCB175
:1022B00033F80C6C964209D133F80A6C8E4205D182
:1022C000120A032A0CBF2378038911E00C33EAE7D2
:1022D000954A1168954A1160A978954A117004E0F1
:1022E000944B0F221A7027E000231C4600E00223C3
:1022F000EE88B34238BF1E46402E34BF35464025D7
:1023000020462946FFF77CFD761B2C4403D1402D47
:1023100012D1354603E0402E34BF354640252046D5
:102320002946FFF76DFD761B2C4401D1402D03D1CA
:10233000814AC8F8004016800122804B3DE0804B66
:102340001A8842F221039A4210D100237D4AC85CC8
:1023500098540133072BF9D11368862B02D17A4B9D
:102360000F221A7000200146FFF74AFD774B44F810
:10237000383023E0764E3568B5B1DFF8BC81B8F867
:102380000090B9F1400F34BF4C4640242846214606
:10239000FFF736FDC4EB09039BB2A8F800300BB978
:1023A000402C00D12B193360654B1A88B2F5A06F11
:1023B00004D100225A709A78664B1A7001225F4B42
:1023C0006CE004EBC806013D736802F00802A3F15B
:1023D0000800EDB202F0FF01002A36D000F036F915
:1023E0005D485E4B50F82520EAB1516840F8251051
:1023F00002F108017160595D03290BD8DFE801F093
:1024000002040608032104E0022102E0052100E0A5
:102410000421595516F0080F12880CBF8823C823D1
:1024200043EA024342E05A5D032A07D8DFE802F09C
:1024300040400204002206E0012204E016F0080FEA
:102440000CBF022203225A5532E054F83820120CF5
:1024500023F8082C22B3DFF834E123F8061C43F8F4
:10246000041C5EF825303E4913B94EF8250002E001
:1024700051F8253058603B4B41F8250033F81510D2
:102480000A4423F8152000F0C3F810B1083070603A
:1024900006E0354B44F838001A7801321A7007E02C
:1024A0002A4B324A16F0080F08BF134644F838305A
:1024B00008233B7070E5E0071FD520492B482C4CC2
:1024C00002230B702B4B1A702B4B186098602B4813
:1024D000D8601A619A615C60164B0D20187028480C
:1024E000FF2303702B700274264A1370264B9F2221
:1024F0001A7001230B70BDE8F88F210604D50D4B2F
:102500000D221A7080232B70A20705D51C4B1A7858
:10251000D2B21A7002232B70E30644BF10232B7033
:10252000BDE8F88FB02A0000008AFF1FF08AFF1F65
:10253000FC89FF1FC0200740D88AFF1F9420074056
:10254000D08AFF1FE88AFF1F6D8AFF1FC800400066
:10255000048AFF1F98200740B08AFF1F188AFF1FB8
:10256000088AFF1FF48AFF1FDA8AFF1F88004000D5
:102570001C8AFF1F6C8AFF1F0080FF1F708AFF1FCD
:10258000882007408C200740842007405C8AFF1F7A
:1025900008B500F0D9F800221A4B0021D150981844
:1025A0000832882A4160F7D1174A106840F4802029
:1025B000106002F528326832C3F307201070C3F3AD
:1025C00007401B0E10751376FF2302F81C3C02F81F
:1025D000143C02F88C3C012302F8083C82F8641099
:1025E00002F8183C094B70226FF450711A700B44BA
:1025F0004FF400721A6003F1C04303F5C8231022A0
:102600001A7008BD0080FF1F3480044049E400E0D8
:1026100072B60C4A1168B1FA81F30B2B02D962B67B
:10262000002070474FF00040D84021EA00011160BF
:1026300062B6054948225343C8180022CA50426076
:10264000704700BF6487FF1F0084FF1F0C4B4822A8
:10265000C31AB3FBF2F30B2B11D80A4A127822B13A
:10266000094A12780AB1FFF719BC72B6074A4FF04F
:10267000004121FA03F311681943116062B67047F3
:102680000084FF1FDA8AFF1FE38AFF1F6487FF1F92
:1026900010B5204B2048214960221A70E1225A705F
:1026A0001F4B204A1C78204B082C01D1012402E04A
:1026B0000A2C03D119240460132005E00C2C0CBF54
:1026C00015243D2404601220086014601860174B24
:1026D00017491B78174A03B101230B601360164B8F
:1026E000164A1978164B012901D880210BE00429DC
:1026F00001D8842107E0082901D8852103E01029A9
:1027000094BF86218721116019600E4B01221A7037
:1027100010BD00BF0040074008B003400CB00340AC
:102720006887FF1F08B00B400CB00B40E68AFF1F04
:1027300020B0034020B00B406987FF1F24B0034046
:1027400024B00B40E58AFF1F1FB572B6154B7022EF
:102750001A70154A412111700F2102F8011C8022C4
:102760001A701A781206FCD5104B186862B6104B16
:10277000984298BF0A2301AC98BF584321460A22C9
:1027800000F01AF80023E15C0A4A29B102EB430089
:1027900001330A2B4180F6D101335B00137004B082
:1027A00010BD00BF000002400700024008000240C8
:1027B0007F969800F287FF1F10B50023B0FBF2F45C
:1027C00002FB1400092894BF30303730C0B2C8541F
:1027D00020460CB10133F1E7CA18547022469A42E0
:1027E00006DA885CCC5C8C54C8540132013BF6E7B5
:1027F000084610BD70B50E4B0E4DED1AAD100024FD
:102800001E46AC4204D056F8242090470134F8E725
:1028100000F072F9084D094BED1AAD1000241E4668
:10282000AC4204D056F8242090470134F8E770BD3C
:10283000042B0000042B0000182B0000042B0000C8
:10284000034613F8012B002AFBD1181A01387047F0
:1028500000000000000000006B0500008305000080
:10286000530500005B050000570500005F050000F0
:10287000E9040000FD0400001D0500002105000022
:10288000270500002D05000033050000430500006A
:102890006305000067050000B9040000C5040000DE
:1028A000D1040000DD04000093050000770500005E
:1028B00000000000000000007B06000093060000FE
:1028C000630600006B060000670600006F0600004C
:1028D000F90500000D0600002D060000310600007D
:1028E000370600003D0600004306000053060000C6
:1028F0007306000077060000C9050000D50500003A
:10290000E1050000ED050000A306000087060000B9
:1029100000000000000000008B070000A30700007B
:10292000730700007B070000770700007F070000A7
:10293000090700001D0700003D07000041070000D7
:10294000470700004D070000530700006307000021
:102950008307000087070000D9060000E506000095
:10296000F1060000FD060000B30700009707000015
:1029700000000000000000002D19000033190000C5
:102980001D19000021190000251900002919000057
:102990004008FE4340A004404408FE4344A00440D5
:1029A0000018FE4300C004403000FE433090044055
:1029B0003400FE43349004401C18FE431CC0044005
:1029C0001018FE4310C004400818FE4308C004401D
:1029D0000C18FE430CC004400C10FE430CB0044025
:1029E0001010FE4310B004401810FE4318B004400D
:1029F0001C10FE431CB004401410FE4314B00440ED
:102A00000418FE4304C004400010FE4300B004401C
:102A10000008FE4300A004400408FE4304A0044054
:102A20000C08FE430CA004400808FE4308A0044024
:102A30001418FE4314C004401818FE4318C0044084
:102A40000410FE4304B004400810FE4308B00440E4
:102A50001400FE43149004404C08FE434CA0044074
:102A60000420FE4304D004402410FE4324B004405C
:102A70002010FE4320B004402810FE4328B004403C
:102A80002C10FE432CB004400020FE4300D0044034
:102A90004808FE4348A004401000FE431090044044
:102AA00000151915000100006A87FF1F12000000C1
:102AB000000200009487FF1F430000000003000095
:102AC000EE87FF1F00000000010309047C87FF1F41
:102AD0000000000002030904D887FF1F0000000067
:102AE00003030904F287FF1F00000000000000003C
:102AF0000000000000000000F8B500BFF8BC08BCF2
:102B00009E46704735040000AD050000BD0600007C
:082B1000CD0700003D19000093
:102B180001090A00FFFFFFFF0A0412010002020078
:102B28000040C01683040001010203011803540089
:102B3800650065006E007300790064007500690027
:102B48006E006F0009024300020100C03209040050
:102B58000001020201000524001001052401010101
:102B6800042402060524060001070582031000401C
:102B780009040100020A00000007050302400000E2
:102B88000705840240000000160355005300420068
:102B98002000530065007200690061006C000403A6
:102BA80009040C0300000000000000000000000001
:082BB800000000000000000015
:00000001FF
