:1000000000800020BD0100006924000035240000AC
:10001000352400003524000035240000352400007C
:100020003524000035240000352400006924000038
:100030006924000035240000692400002524000004
:10004000692400006924000069240000692400007C
:10005000692400006924000069240000692400006C
:10006000692400006924000069240000692400005C
:10007000692400006924000069240000692400004C
:10008000692400006924000069240000692400003C
:10009000692400006924000069240000692400002C
:1000A000692400006924000069240000692400001C
:1000B000692400006924000069240000692400000C
:1000C00069240000692400006924000069240000FC
:1000D00069240000692400006924000069240000EC
:1000E00069240000692400006924000069240000DC
:1000F00069240000812D00006924000031410000C6
:1001000069240000E1450000692400006924000022
:1001100069240000692400006924000069240000AB
:10012000692400006924000069240000692400009B
:10013000692400006924000069240000692400008B
:10014000692400006924000069240000692400007B
:10015000692400006924000069240000692400006B
:10016000692400001D30000069240000692400009B
:10017000692400006924000069240000692400004B
:10018000692400006924000069240000692400003B
:10019000692400006924000069240000692400002B
:1001A000692400006924000069240000692400001B
:1001B000692400006924000069240000564B4CF2B9
:1001C000205210B51A804DF628121A8000BF00BFC9
:1001D00002F04EF9514B4FF010621A60504A9A608B
:1001E000504ADA60A3F53043203B1A6812F480725B
:1001F00004D14D490A604FF4A8521A604B4B1A784B
:10020000110703D51A7842F008021A70484B2A22C7
:100210001A700023474A48499818884204D247492F
:10022000595899500433F5E7454A464B9A424FF0E6
:10023000000302D242F8043BF7E74349434A5958C6
:1002400099500433B3F5DE7FF7D1414B802103F899
:10025000011B40498B42F9D13F4B1A603F4B0A22A8
:100260001A70A3F5805324225A70A0221A709A792A
:100270009207FCD59A79D406FCD4394B9A7902F0CE
:100280000C02082AF9D105221A7143225A719A796F
:100290009006FCD5324B9A795106FBD5314A4FF086
:1002A000817111600521516020221A702C4B9B79BD
:1002B00003F00C030C2BF9D12B4B2C4A1A602C4B5E
:1002C0002C4A1A6000225A60072243F8042C2A4A5A
:1002D000C3F80C2D62B602F057FA134B1B68DA070D
:1002E00005D5264802F0ACF9254B264A1A60264B64
:1002F0001B785B0609D5224C224A2368934204D11D
:100300001E4802F09DF90023236005F0E5F802F095
:10031000B5F801F0C3FFFEE70E2005403080044031
:10032000823F04000100002B14D0034002D007409C
:1003300000E007406087FF1F8088FF1F687500008E
:100340008088FF1F6C8DFF1F000000000082FF1FD0
:1003500000E400E05FE400E008ED00E0005006404B
:10036000004006404480044004800440C010050062
:1003700014E000E03F19010000002020AD8747573E
:100380001CE00340A5C3945A00F00740FFFFFFFFA5
:10039000FFFFFFFFFFFFFFFFFFFFFFFFFFFFFFFF6D
:1003A000FFFFFFFFFFFFFFFFFFFFFFFFFFFFFFFF5D
:1003B000FFFFFFFFFFFFFFFFFFFFFFFFFFFFFFFF4D
:1003C000FFFFFFFFFFFFFFFFFFFFFFFFFFFFFFFF3D
:1003D000FFFFFFFFFFFFFFFFFFFFFFFFFFFFFFFF2D
:1003E000FFFFFFFFFFFFFFFFFFFFFFFFFFFFFFFF1D
:1003F000FFFFFFFFFFFFFFFFFFFFFFFFFFFFFFFF0D
:10040000FFFFFFFFFFFFFFFFFFFFFFFFFEFFFFFFFD
:1004100010B5054C237833B9044B13B10448AFF33E
:1004200000800123237010BD8088FF1F00000000A2
:100430006875000008B5064B1BB106480649AFF3C6
:1004400000800648036813B1054B03B1984708BD07
:1004500000000000687500008488FF1F8088FF1F6F
:100460000000000010B5094C04F1300001F0FEFA64
:1004700004F1200001F0FAFA04F1100001F0F6FA9C
:100480002046BDE8104001F0F1BA00BF9C88FF1F74
:1004900010B50024204601F0D3FE044B185501345A
:1004A000B4F5C67FF6D1184610BD00BFE888FF1F1F
:1004B00038B5044608460D4605F03BF92368024668
:1004C0005B6820462946984738BD38B5044601F098
:1004D000B1F90546204601F0CDF9284438BD38B5BC
:1004E0000446FFF7E5FF0546204601F0C3F928441E
:1004F00038BD08B50368C9B21B68984708BDFFFF3F
:100500000146014801F096B9188CFF1F30B515203F
:100510008DB001F0E7FD044604F00EFE204904F022
:100520005FFE0546C4F5806004F006FE01462846DD
:1005300004F00AFF1B4904F007FF4FF07E5104F05E
:1005400045FD1949044604F04BFE184904F040FDEE
:100550000146204604F044FE1549044604A801F073
:10056000C5FA02222146684601F06CFB694604A8E0
:1005700001F0A3FB0F4901F0A9FB014608A801F017
:1005800005FB08A8FFF7BCFF08A801F06FFA684652
:1005900001F06CFA04A801F069FA20460DB030BDF4
:1005A00000409C4500007A4485EB294133B37F43EA
:1005B000EB6C0000CC6B000030B589B004460D46F2
:1005C00004A8204901F0B2FA04A8FFF799FF04A893
:1005D00001F04CFA214604A801F0D8FA04A8FFF76C
:1005E0008FFF04A801F042FA21461748FFF76DFF7C
:1005F00029461548154A01F0BDF9054604A855B12C
:10060000134901F093FA04A8FFF77AFF04A801F058
:100610002DFA012014E00F4901F068FA214604A8E0
:1006200001F04BFB0146684601F0B0FA6846FFF75F
:1006300067FF684601F01AFA04A801F017FA284685
:1006400009B030BDD16B0000848AFF1FEB6F000042
:10065000DF6B0000EF6B000030B505468DB0184928
:1006600004A801F043FAA9680A220231684601F0A1
:10067000D6FA694604A801F020FB014608A801F05B
:1006800085FA104908A8FFF797FF044608A801F06B
:10069000EDF9684601F0EAF904A801F0E7F95CB168
:1006A000294608A801F072FA08A80749FFF784FF55
:1006B000044608A801F0DAF920460DB030BD00BFAD
:1006C000056C00003F6E0000EC6B00001FB50D498B
:1006D000684601F02BFA68460B49FFF76DFF0024CE
:1006E000684601F0C3F94CB10849684601F01EFAAA
:1006F0006846FFF705FF684601F0B8F9204604B0E8
:1007000010BD00BF116C0000EC6B0000336C0000EA
:100710001FB51349684601F009FA12496846FFF708
:100720004BFF0446684601F0A1F90F49684601F005
:10073000FDF968460B49FFF73FFF2040C4B2684609
:1007400001F094F94CB10949684601F0EFF96846A7
:10075000FFF7D6FE684601F089F9204604B010BDC7
:100760003D6C0000EC6B0000496C00005B6C00000D
:1007700070B590B004460D4604A8324901F0B6F9B0
:100780000A222146684601F037FA694604A801F0BA
:1007900094FA2D4901F09AFA0A220646A96808A897
:1007A00001F03DFA304608A901F087FA01460CA88D
:1007B00001F0ECF925490CA8FFF7FEFE06460CA84F
:1007C00001F054F908A801F051F9684601F04EF91A
:1007D00004A801F04BF9002E32D029460CA801F0F4
:1007E000D5F91B490CA8FFF7E7FE0CA801F03EF96C
:1007F000184908A801F07AF90A22214604A801F054
:10080000FBF904A908A801F058FA01460CA801F068
:10081000BDF911490CA8FFF7CFFE0CA801F026F98D
:1008200004A801F023F908A801F020F90B490CA84D
:1008300001F07CF90CA8FFF763FE0CA801F016F993
:1008400010B070BD056C0000596E00003F6E0000D6
:100850006C6C0000746C0000EC6B0000816C00009C
:1008600030B591B00021684601F040F9002104A89C
:1008700001F03CF9764801F0BFF8764904460CA82F
:1008800001F034F90A22214608A801F0B5F908A9B7
:100890000CA801F012FA01466F48FFF716FE08A8EF
:1008A00001F0E4F80CA801F0E1F869486B4901F0A7
:1008B00075F8002800F0C380654801F09DF8644891
:1008C000674901F06BF8002800F0B980604865497D
:1008D00001F064F8002800F0B2800D2278230CA803
:1008E0005B4901F0A6F80CA9684601F05AF90CA87A
:1008F00001F0BCF85C4908A801F0F8F8694608A8BE
:1009000001F0DBF9594901F0E1F901460CA801F0C9
:100910003DF90CA8FFF7F4FD0CA801F0A7F808A812
:1009200001F0A4F852490CA801F000F968460CA99E
:1009300001F044FA05460CA801F098F8002D7ED08D
:10094000029B0022093B0CA8694601F073FA0CA92E
:10095000684601F026F90CA801F088F8424908A879
:1009600001F0C4F8694608A801F0A7F93F4901F071
:10097000ADF901460CA801F009F90CA8FFF7C0FD7C
:100980000CA801F073F808A801F070F8684639491E
:1009900001F0E1F910B104A837493EE037490CA84D
:1009A00001F0C4F868460CA901F0C7F905460CA887
:1009B00001F05CF805B304A8314901F057F904A926
:1009C0000CA801F0E3F8FFF7A1FD0222014608A8F8
:1009D00001F038F908A90CA801F06FF9294901F0D4
:1009E00075F9014604A801F0C9F808A801F03EF81D
:1009F0000CA801F03BF812E023490CA801F096F88E
:100A00000CA9684601F099F905460CA801F02EF8EA
:100A100004A80DB11D4900E01D4901F027F904A803
:100A2000144901F098F950B904A90CA801F0AEF8E6
:100A300020460CA9FFF79CFE0CA801F017F804A8AB
:100A400001F014F8684601F011F811B030BD00BF94
:100A5000848AFF1F906C0000188CFF1F596E0000E5
:100A6000DD6B0000A16C0000A76C00003F6E000071
:100A7000AE6C0000216E0000B86C0000CE6C00006F
:100A8000D66C0000CC6B0000F06C0000FC6C000029
:100A9000146D000008B518B112481349FFF71FFD87
:100AA00012491048FFF71BFD11490E48FFF717FDCB
:100AB00010490C48FFF713FD0F490A48FFF70FFDD7
:100AC0000E490848FFF70BFD0D490648FFF707FDE3
:100AD00004480C49FFF7ECFC0248BDE8084000F070
:100AE000C9BE00BF188CFF1F3E6D0000556D000091
:100AF000636D0000686D0000866D0000976D00005A
:100B00009D6D0000A46D0000F0B586688B1CB3429B
:100B100085B004460D4601DB002030E019496846E7
:100B200000F0E4FF2046694601F03FF907466846B9
:100B300000F09CFF002FEFD01249684600F0D6FF6E
:100B40002046694601F03AF90746684600F08EFFF4
:100B5000002FE1D00122731E6846214601F06AF998
:100B60006946204601F01DF8684600F07FFF2046E8
:100B700001F09AF9A068A84234BF0020012005B016
:100B8000F0BD00BF3B6E0000F8B5244CA369222BDA
:100B9000054601D9224927E0A36A412B01D9214901
:100BA00022E004F110000121FFF7AEFF10B9284642
:100BB0001D4919E004F120000021FFF7A5FF10B93D
:100BC00028461A4910E00024194F1A487B1C61215D
:100BD00001FB043101F0BFF83E4670B90134042C2A
:100BE000F2D105E01449284601F040F80020F8BD94
:100BF0003C78032CF6D8631C337061235C433119B5
:100C00000C4801312122002301F0EEF831190B4884
:100C100022314022002301F0E7F8F8BD9C88FF1F35
:100C2000A66D0000BC6D0000D66D0000E56D0000F3
:100C3000E888FF1FAC88FF1FF86D0000BC88FF1F0D
:100C400070B5284C284988B004A800F04FFF2178DF
:100C5000684600F0BEFF694604A801F02EF823495B
:100C600001F042F801462248FFF72FFC684600F0E9
:100C7000FDFE04A800F0FAFE237826467BB31C484C
:100C80001C49FFF72CFC0134002533789D4226DAFD
:100C900001350A222946684600F0AEFF694604A8DD
:100CA00000F074FF144904A801F010F8214601F087
:100CB0000DF8124901F00AF804F1210101F006F8DB
:100CC0000F4901F003F801460948FFF7FEFB04A8AD
:100CD00000F0CCFE684600F0C9FE6134D5E708B0EC
:100CE00070BD00BFE888FF1F1F6E0000226E00006D
:100CF000188CFF1F2D6E0000396E0000386E00004A
:100D00003B6E000008B50449044800F052FF044956
:100D10000448FFF7CDFB08BD216E0000748AFF1F59
:100D20003D6E0000188CFF1F7FB50D46044601F094
:100D3000BBF81549284600F03CFF20462021002240
:100D400001F06AF8431C064609D12146284600F006
:100D500015FF20460C4900F02CFF012012E0002274
:100D600033466846214601F065F86946284600F09A
:100D700018FF684600F07AFE20460021721C01F040
:100D800078F8002004B070BD216E000038B5002551
:100D90001A4C1B496019103500F00BFF402DF7D19C
:100DA000184801F081F81748154900F0D4FFD8B968
:100DB00014482146FFF7B8FFC8B9124804F11001E2
:100DC000FFF7B2FFA8B90F4804F12001FFF7ACFF0D
:100DD00088B904F130010B48FFF7A6FF00280CBFCB
:100DE0006FF00100042038BD4FF0FF3038BD012006
:100DF00038BD022038BD032038BD00BF9C88FF1FCE
:100E0000216E0000748AFF1F70B5174D06460FCD86
:100E100090B06C460FC40FCD0FC40FCD0FC495E832
:100E20000F0084E80F0000234FF0FF30F15C81EAEF
:100E3000000210AC02F00F0204EB8202013352F800
:100E4000402C82EA101282EA111101F00F0104EB2A
:100E50008101B3F5C47F51F8400C80EA12106FEAAB
:100E60000000E3D110B070BD8C6B000070B50B4D6D
:100E70002846FFF7C9FF0024C5F88801204601F085
:100E8000DFF92E5D864203D02046314601F0ECF9B1
:100E90000134B4F5C67FF1D170BD00BFE888FF1FF3
:100EA00010B5064CFFF7F4FA2046FFF7ADFFD4F873
:100EB000883198421CBF0023237010BDE888FF1FB3
:100EC00010B588B00021684600F010FE02F084FCE6
:100ED00070B302F03FFCC4B221463648FFF709FB6D
:100EE0000A2C25D00D2C14D1FFF750FF00280ADD65
:100EF0003148324900F02FFFF8B92F48304900F04F
:100F00002AFFD0B91BE00120FFF7C4FDFFF7FAFE6E
:100F10000EE02C4904A800F039FE214604A800F098
:100F2000F0FE0146274800F029FE04A800F09EFDCF
:100F3000684600F09BFD08B010BD0020E4E71E48A5
:100F4000214900F008FF044610B1FFF779FEDDE704
:100F500019481E4900F0FFFE10B11D4B1C70D5E76B
:100F600015481C4900F0F7FE48B16846FFF70CFE33
:100F70000028CBD169460F48FFF7A7FAC6E70E480D
:100F8000154900F0E8FE10B1FFF770FFBEE70A4810
:100F9000124900F0E0FE10B1FFF782FFB6E7064805
:100FA0000F4900F0D8FE0028B0D00E4B0E4A1A6050
:100FB000ACE700BF188CFF1F9C88FF1F616D00000D
:100FC000416E0000748AFF1F636D0000466E0000D2
:100FD000E888FF1F4C6E0000976D0000506E000007
:100FE0009D6D00000CED00E00400FA0500B591B025
:100FF0000021684600F07AFD01F04CFE002847D041
:101000002748284900F0CAFC002841D0264B1B681D
:10101000012B04D0022B3BD1FFF722FC38E0204803
:10102000224900F0BBFCF8B1214908A800F05EFDA0
:10103000FFF76CFA0222014604A800F003FE04A99F
:1010400008A800F03AFE01460CA800F09FFD0CA88D
:10105000FFF702FB0CA800F009FD04A800F006FD54
:1010600008A800F003FD13E012490CA800F05EFD93
:101070000CA8FFF745FA0CA800F0F8FC0D490CA8E5
:1010800000F054FD0CA8FFF7E7FA0CA800F0EEFC06
:10109000FFF716FF684600F0E9FC11B05DF804FBAD
:1010A000848AFF1F556E00006487FF1FCF6C00000D
:1010B0005B6E0000636E000010B5084CFFF7E8F9A6
:1010C0002046FFF7A1FED4F88831984205D00448A5
:1010D0000449FFF704FA0023237010BDE888FF1FBE
:1010E000188CFF1F756E000010B501F073F80F4AE1
:1010F0000F49104800F042FA0F49104800F0F6FC82
:101100000E480F490F4A04F0BBF900240E48002195
:101110002044103400F0EAFC402CF7D100200B49A9
:10112000084ABDE8104004F0ABB900BF188CFF1F9F
:10113000848AFF1FDC88FF1F216E0000748AFF1F56
:101140006D1A00006087FF1F9C88FF1F6504000068
:1011500070B52E482E4C88B000F0A6F800212B4820
:1011600000F0BEF8294904A800F096F904A800F0A0
:101170007DFC264904A800F057F904A8FFF7C0F940
:1011800004A800F073FC04F5C27631211F4800F07A
:10119000C9F821460546684600F0A8FC04F1210183
:1011A00004A800F0A3FC694604AA184800F090F9CE
:1011B0002840C5B204A800F059FC684600F056FC6F
:1011C000A5B1144904A800F0B1FC04A8FFF798F9F0
:1011D00004A800F04BFC04A80C4900F025F904A871
:1011E000FFF78EF904A800F041FC02E06134B4423C
:1011F000CBD13021054800F0B7F830210540034835
:1012000000F0D4F8284008B070BD00BFDC88FF1F94
:10121000E988FF1F906E000008B50021152001F03D
:101220003FFA002000F03AFF18491948FFF757F934
:1012300040F2E24001F0F6FA164841F2883100F03F
:101240006CFB15491248FFF74AF9FFF735FF1349C0
:101250000F48FFF744F9FFF77BFF114B1B68012B89
:1012600004D0022B04D1FFF753FA01E0FFF72EFA66
:1012700008484FF47A7100F050FB05480949FFF720
:101280002EF9BDE80840FFF73DBD00BFAF6E00007E
:10129000188CFF1F848AFF1FD16E0000E36E0000D0
:1012A0006487FF1FF66E000030B503680A499D6A27
:1012B00085B00446684600F039FC69462046A847D8
:1012C000684600F0D3FB236804491B6B20464FF4AB
:1012D0007A72984705B030BD506F0000376C00003F
:1012E00030B5036885B004469D6A684609B10A496D
:1012F00000E00A4900F01AFC69462046A847684603
:1013000000F0B4FB236806491B6B20464FF47A7249
:10131000984705B030BD00BF576F00005C6F0000FC
:10132000EC6B00007FB5036804460E4668460C4926
:101330009D6A00F0FBFB69462046A847684600F01E
:1013400095FB236820463146DB6A984723680549A8
:101350001B6B20464FF47A72984704B070BD00BFF3
:10136000616F0000EC6B00007FB5036804460E4619
:1013700068460C499D6A00F0D9FB69462046A8479B
:10138000684600F073FB236820463146DB6A9847C5
:10139000236805491B6B20464FF47A72984704B0C6
:1013A00070BD00BF6C6F0000EC6B00007FB5036880
:1013B00004460E4668460C499D6A00F0B7FB694634
:1013C0002046A847684600F051FB23682046314676
:1013D000DB6A9847236805491B6B20464FF47A72F5
:1013E000984704B070BD00BF786F0000EC6B000040
:1013F00030B503680A499D6A85B00446684600F026
:1014000095FB69462046A847684600F02FFB2368F5
:1014100004491B6B20464FF47A72984705B030BDE3
:10142000836F0000EC6B00007FB50B680C4605462F
:101430000A499E6A684600F079FB69462046B04733
:10144000684600F013FB236828469B6B21464FF447
:101450007A729847284604B070BD00BF8C6F0000B8
:101460007FB50B680C4605460A499E6A684600F03F
:101470005DFB69462046B047684600F0F7FA2368EE
:1014800028469B6B21464FF47A729847284604B051
:1014900070BD00BF956F00007FB50B680C46054618
:1014A0000A499E6A684600F041FB69462046B047FB
:1014B000684600F0DBFA236828469B6B21464FF410
:1014C0007A729847284604B070BD00BFA36F000031
:1014D000F0B5036885B004460E46684622499D6A09
:1014E000174600F023FB69462046A847684600F0EF
:1014F000BDFA2368314668469D6A00F047FB69469D
:101500002046A847684600F0B1FA236817499D6A4B
:10151000684600F00BFB69462046A847684600F085
:10152000A5FA2368394668469D6A00F02FFB694694
:101530002046A847684600F099FA23680C499D6A3E
:10154000684600F0F3FA69462046A847684600F06E
:101550008DFA236807495D6B074A204644F62063ED
:10156000A84705B0F0BD00BFAA6F0000B56F00002E
:101570003B6E0000EC6B0000B96F000010B5024C30
:1015800004604260816010BD106F0000406808B1C7
:1015900000F050B97047FFFF30B585B004460D46E6
:1015A00068460D4900F0C2FA69462046FFF7EEFF93
:1015B000684600F05BFA2946684600F0E7FA69469B
:1015C0002046FFF7E3FF684600F050FAA06829467E
:1015D00000F030F905B030BDBE6F0000406808B1C2
:1015E00000F048B97047FFFF30B5044685B00D469E
:1015F0008068114600F091F9A06800F03BF92046A0
:10160000FFF7ECFF2946A06800F0C8F905466846D8
:101610005DB10C4900F08AFA20466946FFF7B6FF33
:10162000684600F023FA01200AE0074900F07EFA3C
:1016300020466946FFF7AAFF684600F017FA2846D9
:1016400005B030BDCC6F0000DD6F00007FB50446F3
:101650000D4680681946164600F05FF92046FFF7F0
:10166000BDFFA06800F006F92946A068324600F0E8
:1016700081F9054668465DB10C4900F057FA2046ED
:101680006946FFF783FF684600F0F0F901200AE0A1
:10169000074900F04BFA20466946FFF777FF684696
:1016A00000F0E4F9284604B070BD00BFCC6F000024
:1016B000DD6F000038B50C4605468868114600F01D
:1016C0002CF92046FFF78AFFA06800F0D3F82846DF
:1016D000A168782200F093F9284638BD406808B523
:1016E00010B103681B68984708BDFFFF30B585B08F
:1016F00004460D4668460A4900F018FA6946204635
:10170000FFF744FF684600F0B1F920462946FFF78D
:10171000E5FFA068036829461B68984705B030BDFF
:10172000BE6F000008B50368C9B21B68984708BDC2
:1017300008B50368C9B21B68984708BD08B50368B7
:10174000C9B21B68984708BD08B50368C9B21B68D1
:10175000984708BD034800EB5100B0FBF1F001F0E1
:1017600061B800BF0044950810B5064800EB510071
:101770001446B0FBF1F001F055F82046BDE81040EA
:1017800001F0B4B80044950801F0DAB8084601F059
:101790000BB9084601F04CB9084601F021B908B56B
:1017A000084601F06BF9003018BF012008BD08B5EC
:1017B000084601F085F9003018BF012008BD01F08E
:1017C00069BA01F0A1BA01F075BA01F047BA01F0A7
:1017D000B3BA01F04DBA08B5084601F097F90120F7
:1017E00008BD08B5084601F091F9012008BD10B503
:1017F00008461446114601F0D3F9204610BD38B50D
:1018000008460D4603F095FF04462146284601F0A0
:10181000C7F9204638BD7047044B00221A714FF4B7
:101820007A711A73024A99601A607047848AFF1F9E
:10183000007000002DE9F04100258C688AB0074651
:1018400088462E4694B12B46404601A9212200F03D
:10185000CBFA3B68202C34BF224620225B683846F6
:1018600001A91544A41A98470644EBE730460AB08C
:10187000BDE8F08107B5064B1B88ADF8043003685E
:1018800001A95B680222984703B05DF804FB00BF22
:10189000587000000A4B70B51D6804461E46236848
:1018A0002046DB689847002808DA02F069F83368B8
:1018B000A2685B1B9342F2D34FF0FF3070BD00BFB4
:1018C0009C8AFF1F0A4B70B51D6804461E4623689C
:1018D00020461B699847002808DA02F051F833685F
:1018E000A2685B1B9342F2D34FF0FF3070BD00BF84
:1018F0009C8AFF1F10B504462046FFF7E3FF00282F
:101900000ADB2D2808D0A0F13003092B04D9236865
:101910002046DB689847EFE710BD816070472DE9EE
:10192000F0479A460B78089E80460F469146F3B1E1
:10193000002425464046FFF7ADFF002814DD7B5DFF
:10194000984203D101354D4501D310E000253EB149
:101950001AF80430984205D10134B442EAD303E0C6
:101960003446E7E70024E5E70020BDE8F0870120E2
:10197000BDE8F087F7B50646084614460D4603F065
:10198000D8FE0746204603F0D4FE294600903A468A
:1019900030462346FFF7C3FF03B0F0BD0022FFF738
:1019A000E9BFF8B505460E46FFF7A4FF00281FDB88
:1019B00000242746B0420BD02D2808D0A0F13002D9
:1019C000092A05D80A2202FB0404303C00E0012762
:1019D0002B682846DB6898472846FFF773FFA0F17D
:1019E0003002092AE6D9B042E4D01FB16042F8BD06
:1019F0000020F8BD2046F8BD0121FFF7D2BF70B529
:101A000004460D460021164600F070F8A368B34264
:101A10000DD22846FFF73EFF011E02DA01232B7389
:101A200005E004D02046C9B200F039F9F1E72046BC
:101A300070BDF8B504460D46002116461F4600F05D
:101A400055F8A268BA420FD22846FFF723FF011EBD
:101A500002DA01232B7307E006D0B14204D02046FE
:101A6000C9B200F01CF9EFE72046F8BD10B50446F6
:101A7000006803F069FD204610BD38B504460D46E8
:101A80000068013103F01CFE10B184E82100012040
:101A900038BD43688B4210B5044606D2FFF7EDFF10
:101AA00020B1A3680BB922681370012010BDF8B5EE
:101AB00004460F46154622B9036803B11A70002385
:101AC0000BE01146FFF7E5FF064640B9206810B16C
:101AD00003F03AFD266000236360A36004E0A56084
:101AE0002068394603F01DFE2046F8BD38B50023B6
:101AF000044603604360836003730D4639B10846B2
:101B000003F017FE294602462046FFF7D0FF204685
:101B100038BD38B5054608460C4603F00AFE214696
:101B200002462846BDE83840FFF7C1BF10B5002384
:101B300004460360436083600373FFF7EAFF2046B7
:101B400010BD38B5054600680C4660B16A688B6800
:101B50009A4206D3096803F0E4FDA368AB60002352
:101B60000AE003F0F1FC23682B6063686B60A368F4
:101B7000AB60002323606360A36038BD81420B46E5
:101B800003D009689A68FFF792BF704710B5002329
:101B900004460360436083600373FFF7EFFF204652
:101BA00010BD884210B5044601D0FFF7CAFF204699
:101BB00010BD38B505460C4641B1084603F0B9FDE5
:101BC000214602462846FFF772FF00E0A96028463A
:101BD00038BD13B50023044603604360836003737C
:101BE0000A22084601A900F071FC204601A9FFF76E
:101BF000E0FF204602B010BD10B5002386B00446B9
:101C00000360436083600373084601A900F07CFC15
:101C1000204601A9FFF7CDFF204606B010BD10B544
:101C2000002386B004460360436083600373084664
:101C300001A900F04BFC204601A9FFF7BAFF20469E
:101C400006B010BD10B500238AB00446036043609F
:101C5000836003736B460846911C00F065FC0146E7
:101C60002046FFF7A6FF20460AB010BD10B5044677
:101C7000FFF74FFF204610BD70B504460E4685683D
:101C80005AB115442946FFF704FF30B12068A36814
:101C90003146184403F045FDA560204670BD13B5DC
:101CA00000238DF80410012201A904468DF80530A7
:101CB000FFF7E2FF204602B010BD10B50B46044608
:101CC00009689A68FFF7D8FF204610BD38B5054669
:101CD0000C4639B1084603F02CFD21460246284641
:101CE000FFF7CAFF284638BD38B5044608460D46FA
:101CF00003F01FFD294602462046FFF7BDFF2046A0
:101D000038BD10B50446FFF7CAFF204610BD036872
:101D10000A680BB15AB905E022B1896811B110788F
:101D2000404270473BB1806830B118787047184620
:101D3000114603F0ECBC1846704708B582688B6802
:101D40009A4206D1FFF7E3FFD0F1010038BF00202F
:101D500008BD002008BD826808B50B4612B919B944
:101D6000012008BD11B90368187802E0006803F08B
:101D7000CEFCD0F1010038BF002008BD10B58B6843
:101D80008468E41AA2420CD8006868B1096851B1AD
:101D900010441A4603F0D5FCD0F1010038BF0020F2
:101DA00010BD002010BD084610BD82688B689A42A5
:101DB00002D30022FFF7E2BF0020704708B5826817
:101DC0008B689A420CD3006868B1096851B1D31A84
:101DD000184403F09CFCD0F1010038BF002008BD7E
:101DE000002008BD084608BD38B50C469AB191B12F
:101DF00081688B4202D30023237038BDC91A551E57
:101E00008D4228BF0D4601682A461944204603F03A
:101E1000AFFC0023635538BD83689A4210B506D2E3
:101E20000468A01803F066FC08B1001B10BD4FF059
:101E3000FF3010BD9A42F8B504460D4602D911464E
:101E40001A460B460020A060AE682060B242606077
:101E500020730CD8B34238BF1E462B689F5D98553F
:101E6000296820461144FFF7A4FE2B689F552046A1
:101E7000F8BD38B50B4681688B42044612D28AB150
:101E80009818884288BFC3EB01028D1A2168A560AB
:101E90001A44C8181144EA1A03F05EFB2268A368CA
:101EA0000021D154204638BD2DE9F0410668044692
:101EB00016B3876807B3B046454608F1010828788D
:101EC00003F030FB0028F7D1013F3744387803F0A6
:101ED00029FB48B901377A1BB542A26008D93046C0
:101EE000294600F0E3F903E0AF42F3D3013FEDE709
:101EF0002268A3680021D1542046BDE8F081FFFF8D
:101F0000F0B5304B1B681B06FBD42F4B1B6813F03E
:101F10008002F6D172B62D4B1978002950D02C4989
:101F200008684F688E68CD680C69384414313044B5
:101F30000968284420440844C0F34E00254940F471
:101F400000400860C86A0F6B4E6B8D6BCC6B3844D9
:101F5000403130440968284420440844C0F34E000E
:101F60001D4940F40040086001F10811143151F896
:101F7000140C51F8107C51F80C6C51F8085C51F8B5
:101F8000044C096838443044284420440844C0F3D1
:101F90004E00124940F400400860C86A0F6B4E6B57
:101FA0008D6BCC6B38444031304409682844204460
:101FB0000844C0F34E000A4940F4004008601A701B
:101FC00062B6F0BD24B0034024B00B40958AFF1FD9
:101FD00038B003402CB0034030B003402CB00B406D
:101FE00030B00B4010B5204B2048214960221A70B8
:101FF000E1225A701F4B204A1C78204B082C01D13B
:10200000012402E00A2C03D119240460132005E006
:102010000C2C0CBF15243D240460122008601460B1
:102020001860174B17491B78174A03B101230B603F
:102030001360164B164A1978164B012901D88021D6
:102040000BE0042901D8842107E0082901D8852163
:1020500003E0102994BF86218721116019600E4B7F
:1020600001221A7010BD00BF0040074008B00340B5
:102070000CB003406887FF1F08B00B400CB00B404A
:10208000988AFF1F20B0034020B00B406987FF1FD4
:1020900024B0034024B00B40958AFF1F0E4B1A78E2
:1020A00060B1BAB9012119700C4B1B7823B10C4BEC
:1020B0001A6003F500231A60FFF794BF52B118703D
:1020C000064B1B78002BF7D0054B186003F5002357
:1020D0001860F1E7704700BF988AFF1F958AFF1FBD
:1020E00024B003400D2838B50FD9172801D80E3871
:1020F0000AE0A0F11A03052B01D8093804E0A0F189
:102100002203062B47D81838C0B2244B1C5C244B42
:102110001B780BB1FFF7F4FE210614D472B6214BE5
:10212000214D1C6001232B7062B672B61D4B1B68DB
:102130001A0601D51D4B1FE02B78002BEFD062B69D
:1021400001F01EFCF1E772B6194B1A4D1A6814F033
:10215000400F14BF22F0100242F010021A60164B1A
:1021600004F03F021A6001232B7062B672B6124B64
:102170001B681B0608D5114B186800232B7062B62C
:102180000F4B1B78184138BD2B78002BDCD062B682
:1021900001F0F6FBEAE7002038BD00BF5A700000EE
:1021A000958AFF1F00B00340978AFF1F10B00340BD
:1021B0000CB00B40968AFF1F00B00B4010B00B40D4
:1021C000948AFF1F024B1B78DB07FBD5704700BFCB
:1021D000010002407FB5174B6A4603F110056E46B9
:1021E00018685968144603C40833AB422246F7D135
:1021F000114B1A7812F0020F1D4612D080229A71EC
:1022000033229A7203225A7272B60C4C46F00106BF
:102210002046B04762B6237813F0700301D02370D4
:1022200006E044F621632A78D20701D4013BFAD1B3
:1022300004B070BD72700000010002400000024056
:10224000B0F5006F10B5044609D2064B1B78DB07CA
:1022500001D4FFF7BFFF04F1A054207810BD002087
:1022600010BD00BF01000240B0F5006F38B5044654
:102270000D460FD2084B1B78DB0701D4FFF7AAFFEE
:1022800004F1A0542378AB4204D02570BDE8384057
:10229000FFF798BF38BD00BF0100024008B5FEF748
:1022A000BBFFFEF7A3FE01F06BFBFAE7844641EAB1
:1022B000000313F003036DD1403A41D351F8043BBE
:1022C00040F8043B51F8043B40F8043B51F8043B10
:1022D00040F8043B51F8043B40F8043B51F8043B00
:1022E00040F8043B51F8043B40F8043B51F8043BF0
:1022F00040F8043B51F8043B40F8043B51F8043BE0
:1023000040F8043B51F8043B40F8043B51F8043BCF
:1023100040F8043B51F8043B40F8043B51F8043BBF
:1023200040F8043B51F8043B40F8043B51F8043BAF
:1023300040F8043B51F8043B40F8043B403ABDD21E
:10234000303211D351F8043B40F8043B51F8043BC0
:1023500040F8043B51F8043B40F8043B51F8043B7F
:1023600040F8043B103AEDD20C3205D351F8043B4F
:1023700040F8043B043AF9D2043208D0D2071CBF1B
:1023800011F8013B00F8013B01D30B880380604644
:10239000704700BF082A13D38B078DD010F00303BA
:1023A0008AD0C3F10403D21ADB071CBF11F8013B2A
:1023B00000F8013B80D331F8023B20F8023B7BE779
:1023C000043AD9D3013A11F8013B00F8013BF9D2A4
:1023D0000B7803704B7843708B788370604670473E
:1023E00001B5EAB1102A17DB00F0070333B1C3F1DE
:1023F0000803D21A013B00F8011BFBDCC9B241EA19
:10240000012141EA01418C46D308013BE0E8021C6E
:10241000FBDC12F0070203D0013A00F8011BFBDCE1
:1024200001BD00BF024B1A6801321A60704700BF3D
:102430009C8AFF1F08B50B4C2368580301D500F098
:10244000EDFD2368590501D500F09AFC23681A05B3
:1024500001D501F06DFE2368DB04ECD502F0C0F875
:10246000E9E700BF3480044008B5FFF7E3FFFFFF52
:10247000014B10221A807047002005407047FFFF73
:10248000024A136818441060184670476C87FF1F93
:10249000EFF313839BB9EFF3108098B9EFF3058343
:1024A00023B10F2B04D9084A985C01E04FF48070E7
:1024B000EFF311833BB1834238BF184670474FF0AA
:1024C000FF30704718467047F0E300E010B5002376
:1024D000B0FBF2F402FB1400092894BF303037300F
:1024E000C0B2C85420460CB10133F1E7CA18547089
:1024F00022469A4206DA885CCC5C8C54C85401327D
:10250000013BF6E7084610BD031E10B50C4603DB81
:10251000BDE81040FFF7DABF2D2001F8010B58424B
:10252000FFF7D4FF204610BD2DE9F74F8B469246AA
:10253000114698466A4601AB02F0C1FF009E8146F3
:10254000BAF1000F0BD156B990F800903A4B3B4AC4
:102550000125B9F1340F8CBF9146994608E04846F1
:1025600003F0E7F8B0420546C8BF451C06B901357F
:10257000019A02B10135C5EB0B04002C08EB0507ED
:1025800008DD274443464444A34204D0202103F8F5
:10259000011BF9E7444612B12D2323700134002EAC
:1025A00007D1BAF1000F1ED02346302203F8022BC8
:1025B00027E018DABAF1000F15D02346302203F8CD
:1025C000022B2E226270013732469C1B002AC6F174
:1025D0000001144404DA1944302088540132F4E72D
:1025E000009200E01C46BC420FD2631C19F8012B7C
:1025F0002270BB4208D0009A013A0092002AF1D121
:10260000A31C2E226270EDE73C46BBF1000F0DDAF1
:102610005D446D4223466219D21A002A03DD20224E
:1026200003F8012BF7E7002DA8BF641900234046EB
:10263000237003B0BDE8F08FD46C0000B66C0000CE
:10264000044B054900221A600A60044A10601022F7
:102650001A60704714D0034004D0034000D00340F8
:10266000212810B518D80D4A52F8303093F880421E
:102670003CB1012211B183F8802010BD83F8002104
:1026800010BD02EBC00043681A6811B142F00302AA
:1026900001E022F002021A6010BD00BF8470000049
:1026A000212810B537D81C4A02EBC00301295B680A
:1026B000144601D004290FD154F83020012082F8AB
:1026C00080024FF4A2721A601A6804290CBF42F00B
:1026D000200222F020021DE052F83020002082F873
:1026E000800211B18A1E012A12D84FF48072022989
:1026F0001A6003D11A6842F003020BE003290AD1E1
:102700001A6842F002021A601A6822F0010201E01F
:1027100040F203121A6010BD8470000072B60C4BB8
:102720000C491A680C4B1B68096862B6490102D54E
:10273000322A88BF0133C2F58C32482102F23F129F
:10274000B2FBF1F24FF47A7000FB0320704700BF38
:1027500018E000E004ED00E09C8AFF1F38B5044655
:10276000FFF7DCFF054624B938BD013C0AD005F56A
:102770007A75FFF7D3FF401BB0F57A7FF5D201F0F1
:10278000FFF8F6E738BDFFFF1F4B4FF4000210B50E
:102790001A604FF080721A604FF000721A604FF0AA
:1027A00080621A604FF000621A60184B184A194C88
:1027B000002048F6FF711860596028231360936069
:1027C000136193611362936213639363092222601E
:1027D00004F58054043420606160A360236144F8F0
:1027E000042C04F5FE2420600B4801600B490B60AB
:1027F0008B600B4B1A60FFF7F5FBFA20FFF7AEFF7B
:10280000BDE8104000F008BF08E100E0048003408C
:102810000C8003400080034008800B400C800B407C
:1028200000800B40234B1A6842F480621A60224AEF
:1028300000231370214A1370214A1370214A137028
:10284000214A1370214B1B782BB1152B07D140F275
:1028500013321F4B02E01F4B40F213321A601E4B23
:102860001B78012B05D0052B07D14FF451721B4B60
:1028700002E01B4B4FF451721A601A4BC0F3443202
:102880001A70C0F347125A700221042200F01F0090
:1028900098729A70D9745A7588221A743C22DA7028
:1028A000114B40226FF44A711A700B444FF40052DE
:1028B0001A60704734800440278BFF1FA58AFF1FD2
:1028C000308BFF1F288BFF1FA48AFF1FE68AFF1F84
:1028D00018C0044040A004407087FF1F1CC0044083
:1028E00044A0044000A006402DE400E0134A937881
:1028F00000F0030103F0EC030B43410748BF43F032
:102900001003937000F00F03042B0C4903D18B7953
:1029100043F040038B715379C20603F0EF03074A7B
:1029200048BF43F0100353719379810603F0EF031E
:1029300048BF43F010039371704700BF00A00640EA
:1029400008B5114B1B685B0500D408BD0F4B1A7806
:1029500002F0FF0312B101F013F8F7E70C4A4FF44D
:10296000005111600B4A0C49D37040F203120A6007
:102970004A600A4A13700A4A13700A4B1B680BB16B
:1029800001221A7008BD00BF34800440A48AFF1FD2
:1029900084E100E000A0064040A00440278BFF1F18
:1029A000A58AFF1FA08AFF1F38B50446094B1B7874
:1029B00003F0FF05002BF9D120460121FFF770FE3F
:1029C00020462946FFF74CFE034B53F83420034BB7
:1029D0001A6038BDA48AFF1F847000002C8BFF1F73
:1029E0000F4A137898421AD00E490968490515D53F
:1029F000012B04D0052B05D100210B4B01E00B4B23
:102A000000211960012805D0052807D14FF4517124
:102A1000054B02E0054B4FF451711960107070477F
:102A20007087FF1F348004401CC0044044A0044051
:102A30000E4A1378984218D00D490968490513D5F4
:102A40002BB1152B05D10B4B0021196001E00A4970
:102A50000B6028B1152807D140F21331054B02E075
:102A6000054B40F21331196010707047E68AFF1F62
:102A70003480044018C0044040A004400D4A38B5DA
:102A8000146814F480624FF0000410D021280A4D1D
:102A90000AD80A4A012152F830302B60FFF700FEB5
:102AA0002B681C70012038BD2C60204638BD1046B4
:102AB00038BD00BF34800440A08AFF1F847000002E
:102AC0000E4B1B6813F4806316D012280C4B03D1F5
:102AD00040F202310B4A04E0142809D10A4A40F2BC
:102AE000023111605A7B42F001025A730120704793
:102AF0005A7B02F0FE025A73002070473480044073
:102B000000A006400CA0044014C00440F8B51D4BC2
:102B10001B685A05064633D51B4B1B680BB10122B7
:102B20001A701A4B1C780134402C1F4628BF002411
:102B3000174D2B78A34218D1FFF7AAFC40280FDCD1
:102B4000144A13791B06F3D52B7813490133402B14
:102B500028BF0023C95CDBB2C9B2D1712B70E7E793
:102B6000FF28E5DD00F00CFFE2E70B4BF6B21E5547
:102B70000A4B01221A70074BE4B2BC223C70DA7097
:102B8000F8BD00BF348004402C8BFF1F308BFF1F2B
:102B9000288BFF1F00A00640A68AFF1FA48AFF1FE4
:102BA000274B1B685A052DE9F04707468A4644D54E
:102BB000244B1B680BB101221A703D4607EB0A0338
:102BC0009D4237D2DFF890801F4E98F8004096F86B
:102BD00000900134402C28BF00245FFA89F9A145F8
:102BE0001DD11A4BBC22DA70FFF752FC40280FDCD3
:102BF000164A13791B060FD5337815490133402B3C
:102C000028BF0023C95CDBB2C9B2D171337003E0C5
:102C1000FF2801DD00F0B4FE33784B45E4D00C4BC7
:102C200015F8012B1A550B4B0122E4B21A7088F8E3
:102C30000040C3E7054BBC22DA70BDE8F08700BF57
:102C4000348004402C8BFF1F288BFF1F00A0064000
:102C5000A68AFF1FA48AFF1F308BFF1F08B5034BF6
:102C60001B7813B100F08CFEF9E708BDA48AFF1FA2
:102C7000064A074B1B781078DBB2C0B283422CBFE8
:102C80003F3000F1FF30C01A704700BF288BFF1F94
:102C9000308BFF1F054B1878054B1B78C0B2DBB299
:102CA000984238BF4030C01A704700BF278BFF1FC3
:102CB000A58AFF1F10B5104B10491A780B78D2B2B5
:102CC000DBB29A4214D00133402B28BF00230C48BA
:102CD000DCB2C05C0C700B490968C0B251B19A42B9
:102CE00038BF4032D31A1A2B04DC00230B7010BDFE
:102CF0004FF0FF3010BD00BF278BFF1FA58AFF1FBD
:102D0000E78AFF1FA08AFF1F084B1A78084B1B7821
:102D1000DBB29A4207D00133402B28BF0023054A7B
:102D2000D05CC0B270474FF0FF307047278BFF1F59
:102D3000A58AFF1FE78AFF1F0C4B1B685B0514D594
:102D40000B4BDA7802F0CB02DA7040225A74DA7850
:102D500042F03402DA70074B1A78074BD2B21A707D
:102D6000064B1B680BB100221A7070473480044078
:102D700000A00640A58AFF1F278BFF1FA08AFF1F08
:102D800030B5374B1A7912F0300F31D072B69A7DC8
:102D900002F0FF0022B9DA7940225A7462B627E0C5
:102DA00062B6304A304913780978DBB2C9B21446AA
:102DB0002B4AD5795A1C402A28BF00228A42EDB2FC
:102DC00002D02A4B9D541346421E12F0FF00EFD151
:102DD000DAB22270264A126852B18B4236BFC1F174
:102DE0004001C1EB03035B18272BC4BF0123137001
:102DF0001B4BD978C9B20C0620D51B7918061DD5F6
:102E00001C4B1D4A1D781378EDB2DBB21046AB4265
:102E10000CD0134A0133402B1479184C28BF0023DF
:102E2000E45CE4B2D471127D072AF0D9DBB20370FE
:102E30000B4B1A79120644BF7C22DA704B060ED572
:102E4000074B1A7912F0400F194608D00C4B00229C
:102E50001A700C4B1B6803B11A703C23CB7030BD49
:102E600000A00640278BFF1FA58AFF1FE78AFF1FD0
:102E7000A08AFF1F308BFF1F288BFF1FA68AFF1F12
:102E8000A48AFF1F2C8BFF1FF0B50C4B0C4C1A783B
:102E900042F0020504EBC50682F0010270600948A9
:102EA0001A700678002E0CBF8827C82786F0010606
:102EB00047EA0141067044F83510F0BD9C8BFF1FB6
:102EC0000080FF1F148CFF1F431E032B10B510D86A
:102ED00072B6094A52F8230048B1416842F82310FB
:102EE000064A018832F81340611A22F8131062B6BC
:102EF00010BD002010BD00BF8C8BFF1F548DFF1F25
:102F0000013803280AD872B6054B53F82030002048
:102F100013B101305B68FBE762B670470020704771
:102F2000E08BFF1F10B572B60123174A1A4412F83E
:102F3000012C12071CD59900144A52F831402CB9C3
:102F400002EB431308305860114B09E041F00101D6
:102F500052F8314064B902EBC103083058600D4BA0
:102F600042F831300C4B1A78013A1A7062B610BD33
:102F70000133052BD9D162B6074B00221A70BDE888
:102F8000104000F0C5BB00BF787200000080FF1F3A
:102F900088004000C80040000A8CFF1F431E032B1E
:102FA00030B532D8194A400140F01000104472B6D2
:102FB000174CE25C032A09D8DFE802F01602180574
:102FC0000830022213E00830042210E01148124AAF
:102FD00050F8234014B940F8231002E052F82300BF
:102FE000416042F823100FE0032200E00522E25482
:102FF00010F0080F01F108030A8843600CBF882312
:10300000C82343EA0243036062B630BD0080FF1F5D
:10301000488BFF1FE08BFF1FF08BFF1F2DE9F84F40
:10302000AB4F3C78E4B214F0040F3D4619D0A94BE5
:103030001B78A3B1A84A117801F0FF0321B1013B2D
:10304000DBB2137003B900BEA44A117801F0FF038C
:1030500029B1013BDBB213700BB900F06DFC042306
:103060003B7004F0080303F0FF02002B00F06782BE
:103070009B4B9C4C1A78D2B215094FEA920840F04B
:10308000E48104EBC803596854F83830C3F3830370
:10309000013B0C2B00F2D681DFE813F0950195017E
:1030A000D401D401D401D401D401D401B001D4019C
:1030B000D401D4010D008C4D0A684B688B486B60BD
:1030C00001218B4B44F838302A60DFF850820170C0
:1030D00092B240F2816000238242C8F8003023613E
:1030E000A36117D8B2F5D06F80F01E81B2F5817F51
:1030F00000F0CF8006D8802A00F0BA80822A00F043
:10310000BB8031E140F202339A4200F0D180B2F547
:10311000A06F1CE042F22100824200F051810ED8E3
:10312000B2F5086F00F09E80B2F5106F40F01C8180
:10313000684B6C4EAA781A7006F180090AE042F2D8
:1031400021218A4200F0088142F221339A4200F0A4
:103150000F8109E1336A1B0603D5706A083800F055
:10316000D7FA08364E45F5D10026B146DFF8B0A1B2
:1031700056F80A0028B1D0F804B000F0C9FA584651
:10318000F8E74AF806005B4BDFF898A1F05056F8D4
:103190000A0028B1D0F804B000F0BAFA5846F8E7AF
:1031A000554B4AF80600F050544B23F81900544B85
:1031B00019F80320023A032A08D8DFE802F00204D3
:1031C0000204002200E0012203F8092009F10109AC
:1031D000B9F1040F06F10406C8D14A4B00221A7057
:1031E00001269A46484A494B3244334412F8012C8E
:1031F0009B0012F0080F1A704FEA860925D000F0E4
:1032000069FA38B104EB461308305860404B44F873
:10321000393006E09AF8003044F8390001338AF872
:10322000003000F057FA49F0010338B104EBC30253
:10323000083050602E4A44F8332006E044F833004A
:103240009AF8003001338AF8003049F00202013662
:1032500049F003090023052E44F8323044F8393090
:10326000C0D186E01B4B2B4C1B7823700B4683E0B0
:10327000284C237063707EE0AA88042A74D8254CF9
:10328000920023706370244B9B5C9E0773D5217062
:1032900071E0AA8802F07F02042A65DC6B88002BAB
:1032A00062D191001C4A0A44117821F0020159E0D0
:1032B000AA8802F07F02042A56DC6B88002B53D1C7
:1032C0009100154A0A44117841F002014AE000BF1A
:1032D00080200740138CFF1F9D8BFF1F288CFF1F32
:1032E000902007400080FF1F008CFF1F148CFF1FE1
:1032F000C8004000388BFF1FF08BFF1F548DFF1F4D
:10330000488BFF1F0A8CFF1F7872000030C8011025
:10331000880040000B8CFF1FC0200740348BFF1F2C
:103320008C8BFF1FE08BFF1F6A88A9889F4B53F887
:10333000084CA3F10C00BCB133F80C6C964209D1D7
:1033400033F80A6C8E4205D1120A032A0CBF237887
:10335000038911E00C33EAE7954A1168954A116038
:10336000A978954A117004E0944B0F221A7027E057
:1033700000231C4600E00223EE88B34238BF1E46FD
:10338000402E34BF3546402520462946FFF77CFDB8
:10339000761B2C4403D1402D12D1354603E0402E3C
:1033A00034BF3546402520462946FFF76DFD761B84
:1033B0002C4401D1402D03D1814AC8F80040168029
:1033C0000122804B3DE0804B1A8842F221039A4251
:1033D00010D100237D4AC85C98540133072BF9D1E2
:1033E0001368862B02D17A4B0F221A7000200146F7
:1033F000FFF74AFD774B44F8383023E0764E3568C6
:10340000B5B1DFF8BC81B8F80090B9F1400F34BF16
:103410004C46402428462146FFF736FDC4EB0903FD
:103420009BB2A8F800300BB9402C00D12B193360A7
:10343000654B1A88B2F5A06F04D100225A709A78B1
:10344000664B1A7001225F4B6CE004EBC806013D2D
:10345000736802F00802A3F10800EDB202F0FF0168
:10346000002A36D000F054F95D485E4B50F8252014
:10347000EAB1516840F8251002F108017160595D08
:1034800003290BD8DFE801F002040608032104E059
:10349000022102E0052100E00421595516F0080F31
:1034A00012880CBF8823C82343EA024342E05A5DD6
:1034B000032A07D8DFE802F040400204002206E0B9
:1034C000012204E016F0080F0CBF022203225A5515
:1034D00032E054F83820120C23F8082C22B3DFF81D
:1034E00034E123F8061C43F8041C5EF825303E49FD
:1034F00013B94EF8250002E051F8253058603B4BD7
:1035000041F8250033F815100A4423F8152000F07F
:10351000E1F810B10830706006E0354B44F838002F
:103520001A7801321A7007E02A4B324A16F0080F57
:1035300008BF134644F8383008233B7070E5E007B5
:103540001FD520492B482C4C02230B702B4B1A7093
:103550002B4B186098602B48D8601A619A615C60A8
:10356000164B0D2018702848FF2303702B7002742F
:10357000264A1370264B9F221A7001230B70BDE858
:10358000F88F210604D50D4B0D221A7080232B7065
:10359000A20705D51C4B1A78D2B21A7002232B70E1
:1035A000E30644BF10232B70BDE8F88F887200003B
:1035B0009C8AFF1F648DFF1F388CFF1FC0200740AF
:1035C000088CFF1F94200740008CFF1F5C8DFF1F9D
:1035D0009D8BFF1FC8004000348BFF1F98200740C1
:1035E000E08BFF1F488BFF1F388BFF1F548DFF1F81
:1035F0000A8CFF1F880040004C8BFF1F9C8BFF1F15
:103600000080FF1FA08BFF1F882007408C200740F1
:10361000842007408C8BFF1F08B501F049F8002279
:103620001A4B0021D15098180832882A4160F7D1EE
:10363000174A106840F48020106002F52832683282
:10364000C3F307201070C3F307401B0E10751376E9
:10365000FF2302F81C3C02F8143C02F88C3C0123C6
:1036600002F8083C82F8641002F8183C094B7022FA
:103670006FF450711A700B444FF400721A6003F12A
:10368000C04303F5C82310221A7008BD0080FF1F35
:103690003480044049E400E000F09EB800F05AB8DD
:1036A00000F07EB800F01AB9084600F00BB90846E1
:1036B000114600F09FB87047044B00221A714FF476
:1036C0007A711A73024A99601A607047188CFF1F4A
:1036D000A071000072B60C4A1168B1FA81F30B2B8D
:1036E00002D962B6002070474FF00040D84021EA6E
:1036F0000001116062B6054948225343C8180022F0
:10370000CA504260704700BF7487FF1F0084FF1FCC
:103710000C4B4822C31AB3FBF2F30B2B11D80A4A05
:10372000127822B1094A12780AB1FFF7FBBB72B6D0
:10373000074A4FF0004121FA03F311681943116061
:1037400062B670470084FF1F0A8CFF1F138CFF1F97
:103750007487FF1F10B5104C23686BB12068428836
:10376000531C0244147A0288934212D3FFF7D0FF0D
:10377000094B00221A600DE0084B1B7813B94FF07B
:10378000FF3010BD0320FFF79FFB20600028E5D12C
:10379000F5E74380204610BD348CFF1F138CFF1FBC
:1037A00010B50B4C236813B123686BB902E0094BC9
:1037B0001B7813B94FF0FF3010BD0320FFF784FBD7
:1037C00020600028F0D1F5E75A881344187A10BD1C
:1037D000348CFF1F138CFF1F044B9888044B1B680D
:1037E0001BB11A885B88D31A18447047548DFF1F89
:1037F000348CFF1F2DE9F8432D4E012307460C465C
:103800003370002C4FD02B4D2B68A9462BBB48F6AC
:103810000148294B1B7803F0FF020BB9327015E009
:103820000420FFF76DFB072808D801233370FFF74A
:1038300051FFC9F8000080B91D4B1870B8F101089C
:103840001E4B01D01A782AB101221A704FF0FF30B6
:10385000BDE8F88300F094F8DBE72968174A488848
:1038600000231370C0F14002944238BF224600F199
:10387000080C10448C444880A41A934204D0F85C8D
:103880000CF803000133F8E71F444B883F2B06D99F
:1038900040230B800420FFF781FB00232B60084BA3
:1038A00005221A70ADE734702046BDE8F88300BFEA
:1038B000298CFF1F2C8CFF1F138CFF1F308CFF1FC8
:1038C000288CFF1F07B502AB012103F8010D184634
:1038D000FFF790FF03B05DF804FBFFFF2DE9F04117
:1038E000114B1B78F3B1114E114B3468114D012768
:1038F0001F7098464CB1002763882F7004202380E6
:103900002146FFF74BFB376009E0FFF7E3FE014676
:1039100020B104202C70FFF741FB00E02F70002342
:1039200088F80030BDE8F081138CFF1F2C8CFF1F3E
:10393000298CFF1F288CFF1F38B50E4B1B7803F016
:10394000FF05ABB90C4C216831B14B880B800420CA
:10395000FFF724FB256038BDFFF7BCFE014620B110
:103960000420BDE83840FFF719BB044B01221A7050
:1039700038BD00BF298CFF1F2C8CFF1F288CFF1F18
:1039800010B50E4C2378BBB901232370FFF724FF39
:1039900008B1FFF790FEFFF77DF908B1FDF73BFF97
:1039A00000F050FB08B100F084F800F0B5FD08B15C
:1039B00000F007F90023237010BD00BF398CFF1FF2
:1039C00008B50368C9B21B68984708BD08B5036805
:1039D000C9B21B68984708BD08B50368C9B21B681F
:1039E000984708BD08B50368C9B21B68984708BD69
:1039F000034800EB5100B0FBF1F000F0F1B800BF5C
:103A00000044950810B5064800EB51001446B0FB81
:103A1000F1F000F0E5F82046BDE8104000F044B9B0
:103A20000044950800F06AB9084600F09BB90846C2
:103A300000F0DCB9084600F0B1B908B5084600F05E
:103A4000FDF9003018BF012008BD08B5084600F098
:103A500017FA003018BF012008BD00F0F3BA00F0DB
:103A60002BBB00F0FFBA00F0D1BA00F03DBB00F074
:103A7000D7BA08B5084600F021FA012008BD08B5FC
:103A8000084600F01BFA012008BD10B50846144690
:103A9000114600F05DFA204610BD38B508460D46C7
:103AA00001F047FE04462146284600F051FA204620
:103AB00038BD7047044B00221A714FF47A711A73A3
:103AC000024A99601A6070473C8CFF1FC071000069
:103AD00008B50368C9B21B68984708BD08B50368F4
:103AE000C9B21B68984708BD08B50368C9B21B680E
:103AF000984708BD08B50368C9B21B68984708BD58
:103B0000034800EB5100B0FBF1F000F095BB00BFA3
:103B100000A24A0410B5064800EB51001446B0FB61
:103B2000F1F000F089FB2046BDE8104000F0C6BB74
:103B300000A24A0400F0ECBB084600F01DBC084699
:103B400000F037BC084600F033BC08B5084600F06A
:103B500031FC003018BF012008BD08B5084600F050
:103B60004BFC003018BF012008BD00F0D5BC00F0B0
:103B70000DBD00F0E1BC00F0B3BC00F01FBD00F0D3
:103B8000B9BC08B5084600F055FC012008BD08B5D1
:103B9000084600F04FFC012008BD10B50846144649
:103BA000114600F091FC204610BD38B508460D4680
:103BB00001F0BFFD04462146284600F085FC204662
:103BC00038BD7047044B00221A714FF47A711A7392
:103BD000024A99601A6070474C8CFF1F20720000E7
:103BE000234B1A6842F400621A60224A00231370C1
:103BF000214A1370214A1370214A1370214A13700D
:103C0000214B1B78092B05D01A2B07D140F2133218
:103C10001E4B02E01E4B40F213321A601D4B1B7804
:103C20000A2B05D01F2B07D14FF451721A4B02E01B
:103C30001A4B4FF451721A60194BC0F344321A7088
:103C4000C0F347125A7000F01F000422022198723C
:103C50009A70D9745A7588221A743C22DA70114B02
:103C600040221A70A3F22B334FF400421A607047BF
:103C700034800440CA8CFF1F618CFF1FD08CFF1F53
:103C8000CB8CFF1F608CFF1F7887FF1F04D0044080
:103C90000CB004407987FF1F00D0044010B00440EE
:103CA00000B006402FE400E0134A937800F00301CF
:103CB00003F0EC030B43410748BF43F0100393703C
:103CC00000F00F03042B0C4903D18B7943F0400320
:103CD0008B715379C20603F0EF03074A48BF43F0E4
:103CE000100353719379810603F0EF0348BF43F04B
:103CF00010039371704700BF00B0064008B5114B28
:103D00001B681B0500D408BD0F4B1A7802F0FF0397
:103D100012B1FFF735FEF7E70C4A4FF4004111608E
:103D20000B4A0C49D37040F203120A604A600A4AF7
:103D300013700A4A13700A4B1B680BB101221A70E8
:103D400008BD00BF34800440608CFF1F84E100E0A8
:103D500000B006400CB00440CA8CFF1F618CFF1FEE
:103D60005C8CFF1F38B50446094B1B7803F0FF0538
:103D7000002BF9D120460121FEF792FC204629466E
:103D8000FEF76EFC034B53F83420034B1A6038BD2A
:103D9000608CFF1F84700000CC8CFF1F0F4A1378CB
:103DA00098421AD00E490968C90415D50A2B04D0C7
:103DB0001F2B05D100210B4B01E00B4B002119609B
:103DC0000A2805D01F2807D14FF45171054B02E096
:103DD000054B4FF451711960107070477987FF1FC0
:103DE0003480044000D0044010B004400F4A1378DF
:103DF00098421AD00E490968C90415D5092B04D078
:103E00001A2B05D100210B4B01E00B4B002119604F
:103E1000092805D01A2807D140F21331054B02E0DA
:103E2000054B40F213311960107070477887FF1FFF
:103E30003480044004D004400CB004400D4A38B52E
:103E4000146814F400624FF0000410D021280A4DC9
:103E50000AD80A4A012152F830302B60FEF720FCC4
:103E60002B681C70012038BD2C60204638BD1046E0
:103E700038BD00BF348004405C8CFF1F847000009C
:103E80000B4B1B6813F4006310D01728094B09D1A2
:103E9000094A40F2023111605A7B42F001025A7322
:103EA000012070475A7B02F0FE025A7300207047CF
:103EB0003480044000B0064008B00440F8B51D4B03
:103EC0001B681A05064633D51B4B1B680BB1012234
:103ED0001A701A4B1C780134282C1F4628BF002466
:103EE000174D2B78A34218D1FEF7D2FA40280FDCE9
:103EF000144A13791B06F3D52B7813490133282B69
:103F000028BF0023C95CDBB2C9B2D1712B70E7E7CF
:103F1000FF28E5DDFFF734FDE2E70B4BF6B21E5557
:103F20000A4B01221A70074BE4B2BC223C70DA70D3
:103F3000F8BD00BF34800440CC8CFF1FD08CFF1F25
:103F4000CB8CFF1F00B00640628CFF1F608CFF1FF0
:103F5000274B1B681A052DE9F04707468A4644D5CA
:103F6000244B1B680BB101221A703D4607EB0A0374
:103F70009D4237D2DFF890801F4E98F8004096F8A7
:103F800000900134282C28BF00245FFA89F9A1454C
:103F90001DD11A4BBC22DA70FEF77AFA40280FDCEA
:103FA000164A13791B060FD5337815490133282B90
:103FB00028BF0023C95CDBB2C9B2D171337003E002
:103FC000FF2801DDFFF7DCFC33784B45E4D00C4BD8
:103FD00015F8012B1A550B4B0122E4B21A7088F820
:103FE0000040C3E7054BBC22DA70BDE8F08700BF94
:103FF00034800440CC8CFF1FCB8CFF1F00B00640E8
:10400000628CFF1F608CFF1FD08CFF1F08B5034B15
:104010001B7813B1FFF7B4FCF9E708BD608CFF1FF4
:10402000064A074B1B781078DBB2C0B283422CBF24
:10403000273000F1FF30C01A704700BFCB8CFF1F44
:10404000D08CFF1F054B1878054B1B78C0B2DBB234
:10405000984238BF4030C01A704700BFCA8CFF1F5B
:10406000618CFF1F10B5104B10491A780B78D2B233
:10407000DBB29A4214D00133402B28BF00230C48F6
:10408000DCB2C05C0C700B490968C0B251B19A42F5
:1040900038BF4032D31A1A2B04DC00230B7010BD3A
:1040A0004FF0FF3010BD00BFCA8CFF1F618CFF1F97
:1040B0008A8CFF1F5C8CFF1F084B1A78084B1B78FB
:1040C000DBB29A4207D00133402B28BF0023054AB8
:1040D000D05CC0B270474FF0FF307047CA8CFF1FF2
:1040E000618CFF1F8A8CFF1F0C4B1B681B0514D5AE
:1040F0000B4BDA7802F0CB02DA7040225A74DA788D
:1041000042F03402DA70074B1A78074BD2B21A70B9
:10411000064B1B680BB100221A70704734800440B4
:1041200000B00640618CFF1FCA8CFF1F5C8CFF1F14
:1041300030B5374B1A7912F0300F31D072B69A7D04
:1041400002F0FF0022B9DA7940225A7462B627E001
:1041500062B6304A304913780978DBB2C9B21446E6
:104160002B4AD5795A1C402A28BF00228A42EDB238
:1041700002D02A4B9D541346421E12F0FF00EFD18D
:10418000DAB22270264A126852B18B4236BFC1F1B0
:104190004001C1EB03035B18272BC4BF012313703D
:1041A0001B4BD978C9B20C0620D51B7918061DD532
:1041B0001C4B1D4A1D781378EDB2DBB21046AB42A2
:1041C0000CD0134A0133282B1479184C28BF002334
:1041D000E45CE4B2D471127D072AF0D9DBB203703B
:1041E0000B4B1A79120644BF7C22DA704B060ED5AF
:1041F000074B1A7912F0400F194608D00C4B0022D9
:104200001A700C4B1B6803B11A703C23CB7030BD85
:1042100000B00640CA8CFF1F618CFF1F8A8CFF1FF5
:104220005C8CFF1FD08CFF1FCB8CFF1F628CFF1F8D
:10423000608CFF1FCC8CFF1F174B1A6842F4805212
:104240001A60164A00231370154A1370154A13702A
:10425000154A1370154A1370154A40F21331116054
:104260004FF451715160134AC0F344311170C0F3DF
:10427000471100F01F0051709072937013742C233B
:10428000D3700D4B40226FF44B711A700B444FF4F6
:1042900000321A60704700BF34800440428DFF1F17
:1042A000D98CFF1F488DFF1F438DFF1FD88CFF1F28
:1042B00008C0044000C0064031E400E0134A93788F
:1042C00000F0030103F0EC030B43410748BF43F048
:1042D0001003937000F00F03042B0C4903D18B796A
:1042E00043F040038B715379C20603F0EF03074A92
:1042F00048BF43F0100353719379810603F0EF0335
:1043000048BF43F010039371704700BF00C00640E0
:1043100008B5114B1B68DB0400D408BD0F4B1A789D
:1043200002F0FF0312B1FFF72BFBF7E70C4A4FF443
:10433000003111600B4A0C49D37040F203120A603D
:104340004A600A4A13700A4A13700A4B1B680BB181
:1043500001221A7008BD00BF34800440D88CFF1FB2
:1043600084E100E000C0064008C00440428DFF1F09
:10437000D98CFF1FD48CFF1F38B50446094B1B781E
:1043800003F0FF05002BF9D120460121FEF788F943
:1043900020462946FEF764F9034B53F83420034BBB
:1043A0001A6038BDD88CFF1F84700000448DFF1F39
:1043B000704770470D4A38B5146814F480524FF0B6
:1043C000000410D021280A4D0AD80A4A012152F8C7
:1043D00030302B60FEF764F92B681C70012038BD6B
:1043E0002C60204638BD104638BD00BF34800440E4
:1043F000D48CFF1F847000000B4B1B6813F4805398
:1044000010D00E28094B09D1094A40F2023111603F
:104410005A7B42F001025A73012070475A7B02F026
:10442000FE025A73002070473480044000C00640EA
:1044300004C00440F8B51D4B1B68DA04064633D5AA
:104440001B4B1B680BB101221A701A4B1C780134EC
:10445000282C1F4628BF0024174D2B78A34218D1C3
:10446000FEF716F840280FDC144A13791B06F3D523
:104470002B7813490133282B28BF0023C95CDBB2FA
:10448000C9B2D1712B70E7E7FF28E5DDFFF778FAB5
:10449000E2E70B4BF6B21E550A4B01221A70074B8E
:1044A000E4B2AC223C70DA70F8BD00BF3480044046
:1044B000448DFF1F488DFF1F438DFF1F00C0064026
:1044C000DA8CFF1FD88CFF1F38B504464518AC4264
:1044D00004D014F8010BFFF7ADFFF8E738BDFFFF7C
:1044E00008B5034B1B7813B1FFF74AFAF9E708BD8B
:1044F000D88CFF1F064A074B1B781078DBB2C0B27E
:1045000083422CBF273000F1FF30C01A704700BF34
:10451000438DFF1F488DFF1F054B1878054B1B78F7
:10452000C0B2DBB2984238BF4030C01A704700BFFB
:10453000428DFF1FD98CFF1F10B5104B10491A7800
:104540000B78D2B2DBB29A4214D00133402B28BF91
:1045500000230C48DCB2C05C0C700B490968C0B287
:1045600051B19A4238BF4032D31A1A2B04DC0023CF
:104570000B7010BD4FF0FF3010BD00BF428DFF1F0C
:10458000D98CFF1F028DFF1FD48CFF1F084B1A7898
:10459000084B1B78DBB29A4207D00133402B28BF6F
:1045A0000023054AD05CC0B270474FF0FF3070471F
:1045B000428DFF1FD98CFF1F028DFF1F054B1A78FC
:1045C000054BD2B21A70054B1B680BB100221A7052
:1045D000704700BFD98CFF1F428DFF1FD48CFF1F77
:1045E00010B5294B1A79920620D5284AD879137824
:1045F00027490133402B097828BF00238B42C0B2E2
:1046000003D02449C854D9B21170234A116869B142
:10461000224A1278D2B2934236BFC2F14002C2EBB4
:1046200003039B18272BC4BF01230B70164AD178B4
:10463000C9B20C0616D51379180613D5184B1748AE
:104640001C780378DBB29C4202D16C23D37009E062
:104650000133282B28BF0023124CE45CDBB2E4B208
:10466000D47103704B060ED5074B1A7912F0400F28
:10467000194608D00C4B00221A700C4B1B6803B172
:104680001A702C23CB7010BD00C00640428DFF1F56
:10469000D98CFF1F028DFF1FD48CFF1F438DFF1F7E
:1046A000488DFF1FDA8CFF1FD88CFF1F448DFF1F22
:1046B0001FB572B6154B70221A70154A4121117040
:1046C0000F2102F8011C80221A701A781206FCD5FC
:1046D000104B186862B6104B984298BF0A2301AC81
:1046E00098BF584321460A22FDF7F0FE0023E15C03
:1046F0000A4A29B102EB430001330A2B4180F6D16B
:1047000001335B00137004B010BD00BF0000024015
:1047100007000240080002407F9698000288FF1FB1
:1047200081F0004102E000BF83F0004330B54FEA62
:1047300041044FEA430594EA050F08BF90EA020FCF
:104740001FBF54EA000C55EA020C7FEA645C7FEA62
:10475000655C00F0E2804FEA5454D4EB5555B8BF85
:104760006D420CDD2C4480EA020281EA030382EAF6
:10477000000083EA010180EA020281EA0303362D88
:1047800088BF30BD11F0004F4FEA01314FF4801C5B
:104790004CEA113102D0404261EB410113F0004F6D
:1047A0004FEA03334CEA133302D0524263EB430324
:1047B00094EA050F00F0A780A4F10104D5F1200EC2
:1047C0000DDB02FA0EFC22FA05F2801841F100011D
:1047D00003FA0EF2801843FA05F359410EE0A5F1F1
:1047E00020050EF1200E012A03FA0EFC28BF4CF022
:1047F000020C43FA05F3C01851EBE37101F00045D8
:1048000007D54FF0000EDCF1000C7EEB00006EEBE4
:104810000101B1F5801F1BD3B1F5001F0CD349086E
:104820005FEA30004FEA3C0C04F101044FEA4452C5
:1048300012F5800F80F09A80BCF1004F08BF5FEA4C
:10484000500C50F1000041EB045141EA050130BD2C
:104850005FEA4C0C404141EB010111F4801FA4F1CF
:104860000104E9D191F0000F04BF01460020B1FA24
:1048700081F308BF2033A3F10B03B3F120020CDA5C
:104880000C3208DD02F1140CC2F10C0201FA0CF03A
:1048900021FA02F10CE002F11402D8BFC2F1200C9F
:1048A00001FA02F120FA0CFCDCBF41EA0C01904055
:1048B000E41AA2BF01EB0451294330BD6FEA04049E
:1048C0001F3C1CDA0C340EDC04F11404C4F1200289
:1048D00020FA04F001FA02F340EA030021FA04F39B
:1048E00045EA030130BDC4F10C04C4F1200220FAF2
:1048F00002F001FA04F340EA0300294630BD21FA30
:1049000004F0294630BD94F0000F83F4801306BFF5
:1049100081F480110134013D4EE77FEA645C18BFE9
:104920007FEA655C29D094EA050F08BF90EA020F80
:1049300005D054EA000C04BF1946104630BD91EA78
:10494000030F1EBF0021002030BD5FEA545C05D17B
:104950004000494128BF41F0004130BD14F58004BA
:104960003CBF01F5801130BD01F0004545F0FE412E
:1049700041F470014FF0000030BD7FEA645C1ABF63
:10498000194610467FEA655C1CBF0B46024650EA9A
:10499000013406BF52EA033591EA030F41F40021C6
:1049A00030BD00BF90F0000F04BF0021704730B54C
:1049B0004FF4806404F132044FF000054FF0000121
:1049C00050E700BF90F0000F04BF0021704730B5E2
:1049D0004FF4806404F1320410F0004548BF4042B7
:1049E0004FF000013EE700BF42004FEAE2014FEA0C
:1049F00031014FEA02701FBF12F07F4393F07F4FE7
:104A000081F06051704792F0000F14BF93F07F4F18
:104A1000704730B54FF4607401F0004521F000415B
:104A200020E700BF50EA010208BF704730B54FF0E1
:104A300000050AE050EA010208BF704730B511F0E6
:104A4000004502D5404261EB41014FF4806404F11E
:104A500032045FEA915C3FF4DCAE4FF003025FEAA0
:104A6000DC0C18BF03325FEADC0C18BF033202EB28
:104A7000DC02C2F1200300FA03FC20FA02F001FA82
:104A800003FE40EA0E0021FA02F11444C1E600BF21
:104A900070B54FF0FF0C4CF4E06C1CEA11541DBFD4
:104AA0001CEA135594EA0C0F95EA0C0F00F0DEF89F
:104AB0002C4481EA030621EA4C5123EA4C5350EA84
:104AC000013518BF52EA033541F4801143F48013D5
:104AD00038D0A0FB02CE4FF00005E1FB02E506F066
:104AE0000042E0FB03E54FF00006E1FB03569CF0BB
:104AF000000F18BF4EF0010EA4F1FF04B6F5007FC1
:104B000064F5407404D25FEA4E0E6D4146EB060632
:104B100042EAC62141EA55514FEAC52040EA5E50BB
:104B20004FEACE2EB4F1FD0C88BFBCF5E06F1ED865
:104B3000BEF1004F08BF5FEA500E50F1000041EB9C
:104B4000045170BD06F0004646EA010140EA020049
:104B500081EA0301B4EB5C04C2BFD4EB0C0541EA6B
:104B6000045170BD41F480114FF0000E013C00F380
:104B7000AB8014F1360FDEBF002001F0004170BDA4
:104B8000C4F10004203C35DA0C341BDC04F11404BD
:104B9000C4F1200500FA05F320FA04F001FA05F249
:104BA00040EA020001F0004221F0004110EBD37016
:104BB00021FA04F642EB06015EEA430E08BF20EA42
:104BC000D37070BDC4F10C04C4F1200500FA04F3E5
:104BD00020FA05F001FA04F240EA020001F0004177
:104BE00010EBD37041F100015EEA430E08BF20EAEA
:104BF000D37070BDC4F1200500FA05F24EEA020E32
:104C000020FA04F301FA05F243EA020321FA04F060
:104C100001F0004121FA04F220EA020000EBD37017
:104C20005EEA430E08BF20EAD37070BD94F0000F17
:104C30000FD101F00046400041EB010111F4801F4B
:104C400008BF013CF7D041EA060195F0000F18BFFC
:104C5000704703F00046520043EB030313F4801F38
:104C600008BF013DF7D043EA0603704794EA0C0FF2
:104C70000CEA135518BF95EA0C0F0CD050EA410608
:104C800018BF52EA4306D1D181EA030101F0004185
:104C90004FF0000070BD50EA410606BF10461946AD
:104CA00052EA430619D094EA0C0F02D150EA0136B9
:104CB00013D195EA0C0F05D152EA03361CBF1046FA
:104CC00019460AD181EA030101F0004141F0FE4199
:104CD00041F470014FF0000070BD41F0FE4141F41D
:104CE000780170BD70B54FF0FF0C4CF4E06C1CEA1D
:104CF00011541DBF1CEA135594EA0C0F95EA0C0FD2
:104D000000F0A7F8A4EB050481EA030E52EA03358C
:104D10004FEA013100F088804FEA03334FF08055AD
:104D200045EA131343EA12634FEA022245EA1115DA
:104D300045EA10654FEA00260EF000419D4208BF8B
:104D4000964244F1FD0404F5407402D25B084FEA38
:104D50003202B61A65EB03055B084FEA32024FF4E4
:104D600080104FF4002CB6EB020E75EB030E22BF41
:104D7000B61A754640EA0C005B084FEA3202B6EB01
:104D8000020E75EB030E22BFB61A754640EA5C00B0
:104D90005B084FEA3202B6EB020E75EB030E22BF40
:104DA000B61A754640EA9C005B084FEA3202B6EB41
:104DB000020E75EB030E22BFB61A754640EADC0000
:104DC00055EA060E18D04FEA051545EA16754FEA62
:104DD00006164FEAC30343EA52734FEAC2025FEA80
:104DE0001C1CC0D111F4801F0BD141EA00014FF00F
:104DF00000004FF0004CB6E711F4801F04BF0143E0
:104E00000020B4F1FD0C88BFBCF5E06F3FF6AFAEFB
:104E1000B5EB030C04BFB6EB020C5FEA500C50F18B
:104E2000000041EB045170BD0EF0004E4EEA11310E
:104E300014EB5C04C2BFD4EB0C0541EA045170BD15
:104E400041F480114FF0000E013C90E645EA060E59
:104E50008DE60CEA135594EA0C0F08BF95EA0C0F87
:104E60003FF43BAF94EA0C0F0AD150EA01347FF4CF
:104E700034AF95EA0C0F7FF425AF104619462CE7A6
:104E800095EA0C0F06D152EA03353FF4FDAE104609
:104E9000194622E750EA410618BF52EA43067FF45A
:104EA000C5AE50EA41047FF40DAF52EA43057FF4EA
:104EB000EBAE12E74FF0FF3C06E000BF4FF0010CF5
:104EC00002E000BF4FF0010C4DF804CD4FEA410C59
:104ED0007FEA6C5C4FEA430C18BF7FEA6C5C1BD026
:104EE00001B050EA410C0CBF52EA430C91EA030FA7
:104EF00002BF90EA020F0020704710F1000F91EA04
:104F0000030F58BF994208BF90422CBFD8176FEAD1
:104F1000E37040F0010070474FEA410C7FEA6C5C9F
:104F200002D150EA013C07D14FEA430C7FEA6C5CA6
:104F3000D6D152EA033CD3D05DF8040B704700BFD2
:104F40008446104662468C461946634600E000BF20
:104F500001B5FFF7B7FF002848BF10F1000F01BDF2
:104F60004DF808EDFFF7F4FF0CBF012000205DF8BD
:104F700008FB00BF4DF808EDFFF7EAFF34BF012042
:104F800000205DF808FB00BF4DF808EDFFF7E0FFDB
:104F900094BF012000205DF808FB00BF4DF808ED2C
:104FA000FFF7CEFF94BF012000205DF808FB00BF93
:104FB0004DF808EDFFF7C4FF34BF012000205DF875
:104FC00008FB00BF80F0004002E000BF81F000411C
:104FD00042001FBF5FEA410392EA030F7FEA226C9F
:104FE0007FEA236C6AD04FEA1262D2EB1363C1BF2F
:104FF000D218414048404140B8BF5B42192B88BF9E
:10500000704710F0004F40F4000020F07F4018BFC0
:10501000404211F0004F41F4000121F07F4118BFE0
:10502000494292EA030F3FD0A2F1010241FA03FC88
:1050300010EB0C00C3F1200301FA03F100F0004370
:1050400002D5494260EB4000B0F5000F13D3B0F138
:10505000807F06D340084FEA310102F10102FE2AA7
:1050600051D2B1F1004F40EBC25008BF20F0010017
:1050700040EA03007047490040EB000010F4000FC5
:10508000A2F10102EDD1B0FA80FCACF1080CB2EB58
:105090000C0200FA0CF0AABF00EBC25052421843B7
:1050A000BCBFD0401843704792F0000F81F400015C
:1050B00006BF80F400000132013BB5E74FEA41032F
:1050C0007FEA226C18BF7FEA236C21D092EA030F9B
:1050D00004D092F0000F08BF0846704790EA010F15
:1050E0001CBF0020704712F07F4F04D1400028BF42
:1050F00040F00040704712F100723CBF00F5000024
:10510000704700F0004343F0FE4040F40000704759
:105110007FEA226216BF08467FEA23630146420205
:1051200006BF5FEA412390EA010F40F48000704718
:105130004FF0000304E000BF10F0004348BF4042BE
:105140005FEA000C08BF704743F0964301464FF0FA
:1051500000001CE050EA010208BF70474FF0000356
:105160000AE000BF50EA010208BF704711F0004397
:1051700002D5404261EB41015FEA010C02BF844667
:105180000146002043F0B64308BFA3F18053A3F5C6
:105190000003BCFA8CF2083AA3EBC25310DB01FA0D
:1051A00002FC634400FA02FCC2F12002BCF1004F91
:1051B00020FA02F243EB020008BF20F00100704722
:1051C00002F1200201FA02FCC2F1200250EA4C0076
:1051D00021FA02F243EB020008BF20EADC707047BC
:1051E0004FF0FF0C1CEAD0521EBF1CEAD15392EACA
:1051F0000C0F93EA0C0F6FD01A4480EA010C4002A6
:1052000018BF5FEA41211ED04FF0006343EA5010FF
:1052100043EA5111A0FB01310CF00040B1F5000F41
:105220003EBF490041EAD3715B0040EA010062F1F0
:105230007F02FD2A1DD8B3F1004F40EBC25008BFDA
:1052400020F00100704790F0000F0CF0004C08BFF8
:1052500049024CEA502040EA51207F3AC2BFD2F1C5
:10526000FF0340EAC250704740F400004FF00003D3
:10527000013A5DDC12F1190FDCBF00F0004070470D
:10528000C2F10002410021FA02F1C2F1200200FA4B
:1052900002FC5FEA310040F1000053EA4C0308BF12
:1052A00020EADC70704792F0000F00F0004C02BF63
:1052B000400010F4000F013AF9D040EA0C0093F0DE
:1052C000000F01F0004C02BF490011F4000F013B38
:1052D000F9D041EA0C018FE70CEAD15392EA0C0FA6
:1052E00018BF93EA0C0F0AD030F0004C18BF31F011
:1052F000004CD8D180EA010000F00040704790F0E7
:10530000000F17BF90F0004F084691F0000F91F08A
:10531000004F14D092EA0C0F01D142020FD193EA50
:105320000C0F03D14B0218BF084608D180EA0100D8
:1053300000F0004040F0FE4040F40000704740F0B4
:10534000FE4040F4400070474FF0FF0C1CEAD05282
:105350001EBF1CEAD15392EA0C0F93EA0C0F69D0DE
:10536000A2EB030280EA010C49024FEA402037D049
:105370004FF0805343EA111143EA10130CF0004040
:105380008B4238BF5B0042F17D024FF4000C8B4230
:1053900024BF5B1A40EA0C00B3EB510F24BFA3EB10
:1053A000510340EA5C00B3EB910F24BFA3EB9103E0
:1053B00040EA9C00B3EBD10F24BFA3EBD10340EA3A
:1053C000DC001B0118BF5FEA1C1CE0D1FD2A3FF680
:1053D00050AF8B4240EBC25008BF20F00100704735
:1053E0000CF0004C4CEA50207F32C2BFD2F1FF03D8
:1053F00040EAC250704740F400004FF00003013A09
:1054000037E792F0000F00F0004C02BF400010F4AC
:10541000000F013AF9D040EA0C0093F0000F01F0C0
:10542000004C02BF490011F4000F013BF9D041EAE2
:105430000C0195E70CEAD15392EA0C0F08D1420215
:105440007FF47DAF93EA0C0F7FF470AF084676E7E8
:1054500093EA0C0F04D14B023FF44CAF08466EE7C1
:1054600030F0004C18BF31F0004CCAD130F000428F
:105470007FF45CAF31F000437FF43CAF5FE700BFE7
:1054800003460846194600F001B8FFFF70B5064C08
:1054900006460D4613462CB131462A460220AFF38C
:1054A000008070BD204670BD0000000013B5049C54
:1054B00000940024019400F06DF902B010BD73B5A2
:1054C00014461E460D46FFF78FFA00962A462346DD
:1054D000FFF7ECFF02B070BD70B50E4B0E4DED1A2C
:1054E000AD1000241E46AC4204D056F8242090474C
:1054F0000134F8E702F026F8084D094BED1AAD101B
:1055000000241E46AC4204D056F8242090470134B3
:10551000F8E770BD50750000507500006875000018
:1055200050750000034B1B681844407800F00800D9
:10553000704700BF7C88FF1F024B0146186800F0CF
:105540006BB800BF7888FF1F024B0146186800F057
:105550001FB800BF7888FF1F814270B501D30023B8
:105560000EE08C18A042FAD28518134613F1FF33CF
:1055700005D3514266182944F65CCE54F6E770BD57
:10558000934203D0CC5CC4540133F9E770BDFFFFF4
:1055900030B500293CD051F8042C0B1F1D49002ABE
:1055A000B8BF9B180A680C4612B95A600B6030BD30
:1055B00093420DD219685818904203D15A58114499
:1055C000426819605A60236030BD994203D80A4688
:1055D00051680029F9D1146815199D420AD11B6838
:1055E0002344D0188842136012D108680344136022
:1055F0004B680CE002D90C23036030BD18681C18FE
:105600008C4203D10C68496820441860596053608B
:1056100030BD00BF508DFF1F70B5CD1C25F00305B8
:1056200008350C2D38BF0C25002D06463FDB8D427A
:105630003DD3214B1C6818462146A1B10B685B1B6A
:105640000ED40B2B03D90B60CC18CD501FE08C422D
:1056500002D1626802601AE04B6863600C4616E093
:105660000C464968E9E7154C23681BB9304600F041
:1056700031F820602946304600F02CF8431C0146E2
:1056800015D0C41C24F0030484420AD1256004F11F
:105690000B00231D20F00700C31A0BD05A42E25022
:1056A00070BD3046611A00F015F80130EED10C23C0
:1056B0003360002070BD00BF508DFF1F4C8DFF1F59
:1056C0000A46034903460868194600F0B7BB00BF05
:1056D0007888FF1F38B5064C00230546084623602E
:1056E000FCF7CEFE431C02D1236803B12B6038BD0A
:1056F000688DFF1FC9B2024610F8013B1BB18B42F7
:10570000F9D1104670470029FBD01846704710F8B1
:10571000012B11F8013B012A28BF9A42F7D0D01A79
:105720007047034611F8012B03F8012B002AF9D129
:105730007047034613F8012B002AFBD1181A0138D1
:10574000704770B592B10B4605461C7810F8016B96
:10575000B44201F1010101D1012A03D128781B785B
:10576000C01A70BD013A002CEDD1F7E7104670BDAC
:1057700010B5034632B111F8014B03F8014B013A61
:10578000002CF7D11A44934203D0002103F8011BE7
:10579000F9E710BD2DE9F04F89B09A46DDF84C804D
:1057A0002B4BDDF848B01E6804460D469146B8F113
:1057B000000F10D1336B233293420ADC09F1240726
:1057C0003046716B3A4600F039FB00283DD0376314
:1057D0007063D6F834802046294600221D4BFFF71F
:1057E000C9FB07AF40B12046294600221A4BFFF7FC
:1057F000DFFB08B1022300E003238DE8080E0497C5
:105800002B463046224600F0CFFBDAF80010494222
:105810000B46461A079D1E44C1EB0802B542C1F172
:1058200000041A4405D902194444D25CE2540133FD
:10583000EFE71046191A1144494503DA302102F8FE
:10584000011BF7E700231370404609B0BDE8F08F55
:105850007888FF1F0000F03F0000F0BF70B5456A78
:1058600004460E463DB91020FFF766FE60624560B3
:1058700085600560C560656AEB6843B1636ADA6894
:1058800052F8260078B1016842F8261017E0204649
:105890000421212200F0C4FA636AE860DB68002B6F
:1058A000ECD1002070BD012101FA06F56A1D2046E9
:1058B000920000F0B5FA0028F3D04660856000221F
:1058C0000261C26070BD70B5446A06460D463CB9BF
:1058D0001020FFF731FE7062446084600460C46091
:1058E0003DB1736A6A68DB6853F82210296043F897
:1058F000225070BD2DE9F0410C461E460D69074649
:105900001431002308681FFA80FC000C02FB0C6CA9
:10591000504300EB1C4001331FFA8CFC060CAB42D9
:105920000CEB004041F8040BECDBD6B1A3689D42C0
:1059300012DB616838460131FFF790FF22690232BD
:1059400004F10C01804692000C30FCF7AFFC2146BC
:105950003846FFF7B8FF444604EB850301355E6126
:1059600025612046BDE8F081030C1B0413B9000437
:10597000102300E0002310F07F4F04BF0002083323
:1059800010F0704F04BF0001043310F0404F04BF0B
:1059900080000233002803DB420003D5581C704707
:1059A0001846704720207047036813F007020BD099
:1059B000D90722D49A0703D55B08036001207047FA
:1059C0009B0803600220704799B209B91B0C102292
:1059D00013F0FF0F04BF1B0A0832190704BF1B098D
:1059E0000432990704BF9B080232D90702D45B082E
:1059F00005D0013203601046704700207047202018
:105A0000704710B50C460121FFF728FF01224461C1
:105A1000026110BD2DE9F04F16460A6933699A42BA
:105A200085B00D4601DA35460E46D5F81080376947
:105A3000AB68696808EB07049C42C8BF0131FFF7F7
:105A40000DFF00F1140303EB840101911A46DDF808
:105A500004A0524503D2002142F8041BF7E705F1E8
:105A6000140106F1140201EB880802EB8707CDF858
:105A700008800397039EB242154656D2B5F800C07F
:105A80000432BCF1000F25D00F461D46002657F802
:105A9000049BD5F800801FFA89FB1FFA88FA0CFBDB
:105AA0000BAA4FEA19494FEA1848B2440CFB09887F
:105AB00008EB1A481FFA8AFA4AEA084A4FEA1846D7
:105AC000DDF80880AB46B8454BF804AB01D95D461C
:105AD000DDE76E6032F8028CB8F1000F23D01E684B
